{
  "_format": "hh-sol-artifact-1",
  "contractName": "Crowdfunding",
  "sourceName": "contracts/Crowdfunding.sol",
  "abi": [
    {
      "inputs": [
        {
          "internalType": "address",
          "name": "_feeWallet",
          "type": "address"
        }
      ],
      "stateMutability": "nonpayable",
      "type": "constructor"
    },
    {
      "anonymous": false,
      "inputs": [
        {
          "indexed": true,
          "internalType": "uint256",
          "name": "projectId",
          "type": "uint256"
        },
        {
          "indexed": true,
          "internalType": "address",
          "name": "donor",
          "type": "address"
        },
        {
          "indexed": false,
          "internalType": "uint256",
          "name": "amount",
          "type": "uint256"
        }
      ],
      "name": "DonationReceived",
      "type": "event"
    },
    {
      "anonymous": false,
      "inputs": [
        {
          "indexed": true,
          "internalType": "uint256",
          "name": "projectId",
          "type": "uint256"
        },
        {
          "indexed": true,
          "internalType": "address",
          "name": "donor",
          "type": "address"
        },
        {
          "indexed": false,
          "internalType": "uint256",
          "name": "amount",
          "type": "uint256"
        },
        {
          "indexed": true,
          "internalType": "address",
          "name": "feeRecipient",
          "type": "address"
        }
      ],
      "name": "FeePaid",
      "type": "event"
    },
    {
      "anonymous": false,
      "inputs": [
        {
          "indexed": true,
          "internalType": "uint256",
          "name": "projectId",
          "type": "uint256"
        },
        {
          "indexed": true,
          "internalType": "address",
          "name": "owner",
          "type": "address"
        },
        {
          "indexed": false,
          "internalType": "string",
          "name": "title",
          "type": "string"
        },
        {
          "indexed": false,
          "internalType": "uint256",
          "name": "goal",
          "type": "uint256"
        },
        {
          "indexed": false,
          "internalType": "uint256",
          "name": "deadline",
          "type": "uint256"
        }
      ],
      "name": "ProjectCreated",
      "type": "event"
    },
    {
      "anonymous": false,
      "inputs": [
        {
          "indexed": true,
          "internalType": "uint256",
          "name": "projectId",
          "type": "uint256"
        },
        {
          "indexed": true,
          "internalType": "address",
          "name": "donor",
          "type": "address"
        },
        {
          "indexed": false,
          "internalType": "uint256",
          "name": "amountRefunded",
          "type": "uint256"
        }
      ],
      "name": "RefundProcessed",
      "type": "event"
    },
    {
      "inputs": [
        {
          "internalType": "string",
          "name": "_title",
          "type": "string"
        },
        {
          "internalType": "string",
          "name": "_description",
          "type": "string"
        },
        {
          "internalType": "uint256",
          "name": "_goal",
          "type": "uint256"
        },
        {
          "internalType": "uint256",
          "name": "_deadlineTimestamp",
          "type": "uint256"
        },
        {
          "internalType": "bool",
          "name": "_fixedDonationAmount",
          "type": "bool"
        },
        {
          "internalType": "uint256",
          "name": "_requiredDonationAmount",
          "type": "uint256"
        }
      ],
      "name": "createProject",
      "outputs": [],
      "stateMutability": "nonpayable",
      "type": "function"
    },
    {
      "inputs": [
        {
          "internalType": "uint256",
          "name": "_projectId",
          "type": "uint256"
        }
      ],
      "name": "donate",
      "outputs": [],
      "stateMutability": "payable",
      "type": "function"
    },
    {
      "inputs": [
        {
          "internalType": "uint256",
          "name": "",
          "type": "uint256"
        },
        {
          "internalType": "address",
          "name": "",
          "type": "address"
        }
      ],
      "name": "donations",
      "outputs": [
        {
          "internalType": "uint256",
          "name": "",
          "type": "uint256"
        }
      ],
      "stateMutability": "view",
      "type": "function"
    },
    {
      "inputs": [],
      "name": "feeWallet",
      "outputs": [
        {
          "internalType": "address",
          "name": "",
          "type": "address"
        }
      ],
      "stateMutability": "view",
      "type": "function"
    },
    {
      "inputs": [],
      "name": "getAllProjects",
      "outputs": [
        {
          "components": [
            {
              "internalType": "address",
              "name": "owner",
              "type": "address"
            },
            {
              "internalType": "string",
              "name": "title",
              "type": "string"
            },
            {
              "internalType": "string",
              "name": "description",
              "type": "string"
            },
            {
              "internalType": "uint256",
              "name": "goal",
              "type": "uint256"
            },
            {
              "internalType": "uint256",
              "name": "deadline",
              "type": "uint256"
            },
            {
              "internalType": "uint256",
              "name": "amountRaised",
              "type": "uint256"
            },
            {
              "internalType": "bool",
              "name": "completed",
              "type": "bool"
            },
            {
              "internalType": "bool",
              "name": "fixedDonationAmount",
              "type": "bool"
            },
            {
              "internalType": "uint256",
              "name": "requiredDonationAmount",
              "type": "uint256"
            },
            {
              "internalType": "bool",
              "name": "refunded",
              "type": "bool"
            }
          ],
          "internalType": "struct Crowdfunding.Project[]",
          "name": "",
          "type": "tuple[]"
        }
      ],
      "stateMutability": "view",
      "type": "function"
    },
    {
      "inputs": [
        {
          "internalType": "uint256",
          "name": "_projectId",
          "type": "uint256"
        },
        {
          "internalType": "address",
          "name": "_donor",
          "type": "address"
        }
      ],
      "name": "getDonation",
      "outputs": [
        {
          "internalType": "uint256",
          "name": "",
          "type": "uint256"
        }
      ],
      "stateMutability": "view",
      "type": "function"
    },
    {
      "inputs": [
        {
          "internalType": "uint256",
          "name": "_projectId",
          "type": "uint256"
        }
      ],
      "name": "getProject",
      "outputs": [
        {
          "components": [
            {
              "internalType": "address",
              "name": "owner",
              "type": "address"
            },
            {
              "internalType": "string",
              "name": "title",
              "type": "string"
            },
            {
              "internalType": "string",
              "name": "description",
              "type": "string"
            },
            {
              "internalType": "uint256",
              "name": "goal",
              "type": "uint256"
            },
            {
              "internalType": "uint256",
              "name": "deadline",
              "type": "uint256"
            },
            {
              "internalType": "uint256",
              "name": "amountRaised",
              "type": "uint256"
            },
            {
              "internalType": "bool",
              "name": "completed",
              "type": "bool"
            },
            {
              "internalType": "bool",
              "name": "fixedDonationAmount",
              "type": "bool"
            },
            {
              "internalType": "uint256",
              "name": "requiredDonationAmount",
              "type": "uint256"
            },
            {
              "internalType": "bool",
              "name": "refunded",
              "type": "bool"
            }
          ],
          "internalType": "struct Crowdfunding.Project",
          "name": "",
          "type": "tuple"
        }
      ],
      "stateMutability": "view",
      "type": "function"
    },
    {
      "inputs": [
        {
          "internalType": "uint256",
          "name": "_projectId",
          "type": "uint256"
        }
      ],
      "name": "getProjectDonorsWithAmounts",
      "outputs": [
        {
          "internalType": "address[]",
          "name": "addresses_",
          "type": "address[]"
        },
        {
          "internalType": "uint256[]",
          "name": "amounts_",
          "type": "uint256[]"
        }
      ],
      "stateMutability": "view",
      "type": "function"
    },
    {
      "inputs": [],
      "name": "getProjectsCount",
      "outputs": [
        {
          "internalType": "uint256",
          "name": "",
          "type": "uint256"
        }
      ],
      "stateMutability": "view",
      "type": "function"
    },
    {
      "inputs": [
        {
          "internalType": "uint256",
          "name": "",
          "type": "uint256"
        },
        {
          "internalType": "uint256",
          "name": "",
          "type": "uint256"
        }
      ],
      "name": "projectDonors",
      "outputs": [
        {
          "internalType": "address",
          "name": "",
          "type": "address"
        }
      ],
      "stateMutability": "view",
      "type": "function"
    },
    {
      "inputs": [
        {
          "internalType": "uint256",
          "name": "",
          "type": "uint256"
        }
      ],
      "name": "projects",
      "outputs": [
        {
          "internalType": "address",
          "name": "owner",
          "type": "address"
        },
        {
          "internalType": "string",
          "name": "title",
          "type": "string"
        },
        {
          "internalType": "string",
          "name": "description",
          "type": "string"
        },
        {
          "internalType": "uint256",
          "name": "goal",
          "type": "uint256"
        },
        {
          "internalType": "uint256",
          "name": "deadline",
          "type": "uint256"
        },
        {
          "internalType": "uint256",
          "name": "amountRaised",
          "type": "uint256"
        },
        {
          "internalType": "bool",
          "name": "completed",
          "type": "bool"
        },
        {
          "internalType": "bool",
          "name": "fixedDonationAmount",
          "type": "bool"
        },
        {
          "internalType": "uint256",
          "name": "requiredDonationAmount",
          "type": "uint256"
        },
        {
          "internalType": "bool",
          "name": "refunded",
          "type": "bool"
        }
      ],
      "stateMutability": "view",
      "type": "function"
    },
    {
      "inputs": [
        {
          "internalType": "uint256",
          "name": "_projectId",
          "type": "uint256"
        }
      ],
      "name": "refundDonations",
      "outputs": [],
      "stateMutability": "nonpayable",
      "type": "function"
    }
  ],
  "bytecode": "0x608060405234801561001057600080fd5b5060405161334a38038061334a8339818101604052810190610032919061014b565b600073ffffffffffffffffffffffffffffffffffffffff168173ffffffffffffffffffffffffffffffffffffffff16036100a1576040517f08c379a0000000000000000000000000000000000000000000000000000000008152600401610098906101fb565b60405180910390fd5b80600360006101000a81548173ffffffffffffffffffffffffffffffffffffffff021916908373ffffffffffffffffffffffffffffffffffffffff1602179055505061021b565b600080fd5b600073ffffffffffffffffffffffffffffffffffffffff82169050919050565b6000610118826100ed565b9050919050565b6101288161010d565b811461013357600080fd5b50565b6000815190506101458161011f565b92915050565b600060208284031215610161576101606100e8565b5b600061016f84828501610136565b91505092915050565b600082825260208201905092915050565b7f4665652077616c6c65742063616e6e6f74206265207a65726f2061646472657360008201527f7300000000000000000000000000000000000000000000000000000000000000602082015250565b60006101e5602183610178565b91506101f082610189565b604082019050919050565b60006020820190508181036000830152610214816101d8565b9050919050565b6131208061022a6000396000f3fe6080604052600436106100a75760003560e01c8063d466aeea11610064578063d466aeea146101e9578063e4a8f18b14610227578063ee1554a314610252578063f0f3f2c81461028f578063f14faf6f146102cc578063f25f4b56146102e8576100a7565b8063107046bd146100ac578063485ff82a146100f25780635b01e8081461012f57806380d0382914610158578063c2bacfa814610183578063c35d8ee5146101c0575b600080fd5b3480156100b857600080fd5b506100d360048036038101906100ce9190611aee565b610313565b6040516100e99a99989796959493929190611c16565b60405180910390f35b3480156100fe57600080fd5b5061011960048036038101906101149190611cc0565b6104ce565b6040516101269190611d00565b60405180910390f35b34801561013b57600080fd5b5061015660048036038101906101519190611e7c565b61051c565b005b34801561016457600080fd5b5061016d6107f7565b60405161017a919061215b565b60405180910390f35b34801561018f57600080fd5b506101aa60048036038101906101a591906121a9565b610ab9565b6040516101b791906121e9565b60405180910390f35b3480156101cc57600080fd5b506101e760048036038101906101e29190611aee565b610b14565b005b3480156101f557600080fd5b50610210600480360381019061020b9190611aee565b610ea3565b60405161021e929190612362565b60405180910390f35b34801561023357600080fd5b5061023c6110c6565b60405161024991906121e9565b60405180910390f35b34801561025e57600080fd5b50610279600480360381019061027491906121a9565b6110d2565b60405161028691906121e9565b60405180910390f35b34801561029b57600080fd5b506102b660048036038101906102b19190611aee565b6110f7565b6040516102c3919061247a565b60405180910390f35b6102e660048036038101906102e19190611aee565b61136e565b005b3480156102f457600080fd5b506102fd611a0f565b60405161030a9190611d00565b60405180910390f35b6000818154811061032357600080fd5b90600052602060002090600902016000915090508060000160009054906101000a900473ffffffffffffffffffffffffffffffffffffffff169080600101805461036c906124cb565b80601f0160208091040260200160405190810160405280929190818152602001828054610398906124cb565b80156103e55780601f106103ba576101008083540402835291602001916103e5565b820191906000526020600020905b8154815290600101906020018083116103c857829003601f168201915b5050505050908060020180546103fa906124cb565b80601f0160208091040260200160405190810160405280929190818152602001828054610426906124cb565b80156104735780601f1061044857610100808354040283529160200191610473565b820191906000526020600020905b81548152906001019060200180831161045657829003601f168201915b5050505050908060030154908060040154908060050154908060060160009054906101000a900460ff16908060060160019054906101000a900460ff16908060070154908060080160009054906101000a900460ff1690508a565b600260205281600052604060002081815481106104ea57600080fd5b906000526020600020016000915091509054906101000a900473ffffffffffffffffffffffffffffffffffffffff1681565b6000841161055f576040517f08c379a000000000000000000000000000000000000000000000000000000000815260040161055690612548565b60405180910390fd5b4283116105a1576040517f08c379a0000000000000000000000000000000000000000000000000000000008152600401610598906125b4565b60405180910390fd5b81156105f25766038d7ea4c680008110156105f1576040517f08c379a00000000000000000000000000000000000000000000000000000000081526004016105e89061266c565b60405180910390fd5b5b60006040518061014001604052803373ffffffffffffffffffffffffffffffffffffffff168152602001888152602001878152602001868152602001858152602001600081526020016000151581526020018415158152602001838152602001600015158152509050600081908060018154018082558091505060019003906000526020600020906009020160009091909190915060008201518160000160006101000a81548173ffffffffffffffffffffffffffffffffffffffff021916908373ffffffffffffffffffffffffffffffffffffffff16021790555060208201518160010190816106e39190612838565b5060408201518160020190816106f99190612838565b50606082015181600301556080820151816004015560a0820151816005015560c08201518160060160006101000a81548160ff02191690831515021790555060e08201518160060160016101000a81548160ff02191690831515021790555061010082015181600701556101208201518160080160006101000a81548160ff02191690831515021790555050503373ffffffffffffffffffffffffffffffffffffffff1660016000805490506107af9190612939565b7f483013d4a1d5e8ba43089bda8f1a92b959e32d6fc582556f800267dd809e5893898885608001516040516107e69392919061296d565b60405180910390a350505050505050565b60606000808054905067ffffffffffffffff81111561081957610818611d25565b5b60405190808252806020026020018201604052801561085257816020015b61083f611a35565b8152602001906001900390816108375790505b50905060005b600080549050811015610ab15760008181548110610879576108786129ab565b5b9060005260206000209060090201604051806101400160405290816000820160009054906101000a900473ffffffffffffffffffffffffffffffffffffffff1673ffffffffffffffffffffffffffffffffffffffff1673ffffffffffffffffffffffffffffffffffffffff1681526020016001820180546108f9906124cb565b80601f0160208091040260200160405190810160405280929190818152602001828054610925906124cb565b80156109725780601f1061094757610100808354040283529160200191610972565b820191906000526020600020905b81548152906001019060200180831161095557829003601f168201915b5050505050815260200160028201805461098b906124cb565b80601f01602080910402602001604051908101604052809291908181526020018280546109b7906124cb565b8015610a045780601f106109d957610100808354040283529160200191610a04565b820191906000526020600020905b8154815290600101906020018083116109e757829003601f168201915b505050505081526020016003820154815260200160048201548152602001600582015481526020016006820160009054906101000a900460ff161515151581526020016006820160019054906101000a900460ff16151515158152602001600782015481526020016008820160009054906101000a900460ff161515151581525050828281518110610a9957610a986129ab565b5b60200260200101819052508080600101915050610858565b508091505090565b60006001600084815260200190815260200160002060008373ffffffffffffffffffffffffffffffffffffffff1673ffffffffffffffffffffffffffffffffffffffff16815260200190815260200160002054905092915050565b6000805490508110610b5b576040517f08c379a0000000000000000000000000000000000000000000000000000000008152600401610b5290612a26565b60405180910390fd5b6000808281548110610b7057610b6f6129ab565b5b906000526020600020906009020190508060040154421015610bc7576040517f08c379a0000000000000000000000000000000000000000000000000000000008152600401610bbe90612ab8565b60405180910390fd5b8060060160009054906101000a900460ff1615610c19576040517f08c379a0000000000000000000000000000000000000000000000000000000008152600401610c1090612b24565b60405180910390fd5b8060030154816005015410610c63576040517f08c379a0000000000000000000000000000000000000000000000000000000008152600401610c5a90612bb6565b60405180910390fd5b8060080160009054906101000a900460ff1615610cb5576040517f08c379a0000000000000000000000000000000000000000000000000000000008152600401610cac90612c48565b60405180910390fd5b60018160080160006101000a81548160ff02191690831515021790555060005b6002600084815260200190815260200160002080549050811015610e9e576000600260008581526020019081526020016000208281548110610d1a57610d196129ab565b5b9060005260206000200160009054906101000a900473ffffffffffffffffffffffffffffffffffffffff16905060006001600086815260200190815260200160002060008373ffffffffffffffffffffffffffffffffffffffff1673ffffffffffffffffffffffffffffffffffffffff1681526020019081526020016000205490506000811115610e8f5760006064606383610db69190612c68565b610dc09190612cd9565b9050804710610e8d5760008373ffffffffffffffffffffffffffffffffffffffff1682604051610def90612d3b565b60006040518083038185875af1925050503d8060008114610e2c576040519150601f19603f3d011682016040523d82523d6000602084013e610e31565b606091505b505090508015610e8b578373ffffffffffffffffffffffffffffffffffffffff16877f79ff6a60b3e21b3630b207e2a7b0b50b69b197d3d7ca776108ed2afb8fbac8dc84604051610e8291906121e9565b60405180910390a35b505b505b50508080600101915050610cd5565b505050565b6060806000805490508310610eed576040517f08c379a0000000000000000000000000000000000000000000000000000000008152600401610ee490612a26565b60405180910390fd5b6000600260008581526020019081526020016000209050808054905067ffffffffffffffff811115610f2257610f21611d25565b5b604051908082528060200260200182016040528015610f505781602001602082028036833780820191505090505b509250808054905067ffffffffffffffff811115610f7157610f70611d25565b5b604051908082528060200260200182016040528015610f9f5781602001602082028036833780820191505090505b50915060005b81805490508110156110bf576000828281548110610fc657610fc56129ab565b5b9060005260206000200160009054906101000a900473ffffffffffffffffffffffffffffffffffffffff16905080858381518110611007576110066129ab565b5b602002602001019073ffffffffffffffffffffffffffffffffffffffff16908173ffffffffffffffffffffffffffffffffffffffff16815250506001600087815260200190815260200160002060008273ffffffffffffffffffffffffffffffffffffffff1673ffffffffffffffffffffffffffffffffffffffff168152602001908152602001600020548483815181106110a5576110a46129ab565b5b602002602001018181525050508080600101915050610fa5565b5050915091565b60008080549050905090565b6001602052816000526040600020602052806000526040600020600091509150505481565b6110ff611a35565b6000805490508210611146576040517f08c379a000000000000000000000000000000000000000000000000000000000815260040161113d90612a26565b60405180910390fd5b6000828154811061115a576111596129ab565b5b9060005260206000209060090201604051806101400160405290816000820160009054906101000a900473ffffffffffffffffffffffffffffffffffffffff1673ffffffffffffffffffffffffffffffffffffffff1673ffffffffffffffffffffffffffffffffffffffff1681526020016001820180546111da906124cb565b80601f0160208091040260200160405190810160405280929190818152602001828054611206906124cb565b80156112535780601f1061122857610100808354040283529160200191611253565b820191906000526020600020905b81548152906001019060200180831161123657829003601f168201915b5050505050815260200160028201805461126c906124cb565b80601f0160208091040260200160405190810160405280929190818152602001828054611298906124cb565b80156112e55780601f106112ba576101008083540402835291602001916112e5565b820191906000526020600020905b8154815290600101906020018083116112c857829003601f168201915b505050505081526020016003820154815260200160048201548152602001600582015481526020016006820160009054906101000a900460ff161515151581526020016006820160019054906101000a900460ff16151515158152602001600782015481526020016008820160009054906101000a900460ff1615151515815250509050919050565b60008054905081106113b5576040517f08c379a00000000000000000000000000000000000000000000000000000000081526004016113ac90612a26565b60405180910390fd5b60008082815481106113ca576113c96129ab565b5b9060005260206000209060090201905080600401544210611420576040517f08c379a000000000000000000000000000000000000000000000000000000000815260040161141790612d9c565b60405180910390fd5b8060060160009054906101000a900460ff1615611472576040517f08c379a000000000000000000000000000000000000000000000000000000000815260040161146990612e08565b60405180910390fd5b8060080160009054906101000a900460ff16156114c4576040517f08c379a00000000000000000000000000000000000000000000000000000000081526004016114bb90612e74565b60405180910390fd5b66038d7ea4c6800034101561150e576040517f08c379a000000000000000000000000000000000000000000000000000000000815260040161150590612f06565b60405180910390fd5b8060060160019054906101000a900460ff1615611570578060070154341461156b576040517f08c379a000000000000000000000000000000000000000000000000000000000815260040161156290612f98565b60405180910390fd5b611571565b5b60006127106019346115839190612c68565b61158d9190612cd9565b90506000813461159d9190612939565b90506000821115611700576000600360009054906101000a900473ffffffffffffffffffffffffffffffffffffffff1673ffffffffffffffffffffffffffffffffffffffff16836040516115f090612d3b565b60006040518083038185875af1925050503d806000811461162d576040519150601f19603f3d011682016040523d82523d6000602084013e611632565b606091505b5050905080611676576040517f08c379a000000000000000000000000000000000000000000000000000000000815260040161166d90613004565b60405180910390fd5b600360009054906101000a900473ffffffffffffffffffffffffffffffffffffffff1673ffffffffffffffffffffffffffffffffffffffff163373ffffffffffffffffffffffffffffffffffffffff16867fa38fe8fa2c91a01a78e49ff23316834fbbe7594cc31563cdc85f856eff9b3511866040516116f691906121e9565b60405180910390a4505b6000805b60026000878152602001908152602001600020805490508110156117ba573373ffffffffffffffffffffffffffffffffffffffff1660026000888152602001908152602001600020828154811061175e5761175d6129ab565b5b9060005260206000200160009054906101000a900473ffffffffffffffffffffffffffffffffffffffff1673ffffffffffffffffffffffffffffffffffffffff16036117ad57600191506117ba565b8080600101915050611704565b50806118355760026000868152602001908152602001600020339080600181540180825580915050600190039060005260206000200160009091909190916101000a81548173ffffffffffffffffffffffffffffffffffffffff021916908373ffffffffffffffffffffffffffffffffffffffff1602179055505b818460050160008282546118499190613024565b92505081905550346001600087815260200190815260200160002060003373ffffffffffffffffffffffffffffffffffffffff1673ffffffffffffffffffffffffffffffffffffffff16815260200190815260200160002060008282546118b09190613024565b925050819055503373ffffffffffffffffffffffffffffffffffffffff16857f0b5b4c52969ff7329ecf7ee536409fda87812b15a8622bc6e8cdeab3aee14a26346040516118fe91906121e9565b60405180910390a38360030154846005015410611a085760018460060160006101000a81548160ff02191690831515021790555060008460000160009054906101000a900473ffffffffffffffffffffffffffffffffffffffff1673ffffffffffffffffffffffffffffffffffffffff16856005015460405161198090612d3b565b60006040518083038185875af1925050503d80600081146119bd576040519150601f19603f3d011682016040523d82523d6000602084013e6119c2565b606091505b5050905080611a06576040517f08c379a00000000000000000000000000000000000000000000000000000000081526004016119fd906130ca565b60405180910390fd5b505b5050505050565b600360009054906101000a900473ffffffffffffffffffffffffffffffffffffffff1681565b604051806101400160405280600073ffffffffffffffffffffffffffffffffffffffff1681526020016060815260200160608152602001600081526020016000815260200160008152602001600015158152602001600015158152602001600081526020016000151581525090565b6000604051905090565b600080fd5b600080fd5b6000819050919050565b611acb81611ab8565b8114611ad657600080fd5b50565b600081359050611ae881611ac2565b92915050565b600060208284031215611b0457611b03611aae565b5b6000611b1284828501611ad9565b91505092915050565b600073ffffffffffffffffffffffffffffffffffffffff82169050919050565b6000611b4682611b1b565b9050919050565b611b5681611b3b565b82525050565b600081519050919050565b600082825260208201905092915050565b60005b83811015611b96578082015181840152602081019050611b7b565b60008484015250505050565b6000601f19601f8301169050919050565b6000611bbe82611b5c565b611bc88185611b67565b9350611bd8818560208601611b78565b611be181611ba2565b840191505092915050565b611bf581611ab8565b82525050565b60008115159050919050565b611c1081611bfb565b82525050565b600061014082019050611c2c600083018d611b4d565b8181036020830152611c3e818c611bb3565b90508181036040830152611c52818b611bb3565b9050611c61606083018a611bec565b611c6e6080830189611bec565b611c7b60a0830188611bec565b611c8860c0830187611c07565b611c9560e0830186611c07565b611ca3610100830185611bec565b611cb1610120830184611c07565b9b9a5050505050505050505050565b60008060408385031215611cd757611cd6611aae565b5b6000611ce585828601611ad9565b9250506020611cf685828601611ad9565b9150509250929050565b6000602082019050611d156000830184611b4d565b92915050565b600080fd5b600080fd5b7f4e487b7100000000000000000000000000000000000000000000000000000000600052604160045260246000fd5b611d5d82611ba2565b810181811067ffffffffffffffff82111715611d7c57611d7b611d25565b5b80604052505050565b6000611d8f611aa4565b9050611d9b8282611d54565b919050565b600067ffffffffffffffff821115611dbb57611dba611d25565b5b611dc482611ba2565b9050602081019050919050565b82818337600083830152505050565b6000611df3611dee84611da0565b611d85565b905082815260208101848484011115611e0f57611e0e611d20565b5b611e1a848285611dd1565b509392505050565b600082601f830112611e3757611e36611d1b565b5b8135611e47848260208601611de0565b91505092915050565b611e5981611bfb565b8114611e6457600080fd5b50565b600081359050611e7681611e50565b92915050565b60008060008060008060c08789031215611e9957611e98611aae565b5b600087013567ffffffffffffffff811115611eb757611eb6611ab3565b5b611ec389828a01611e22565b965050602087013567ffffffffffffffff811115611ee457611ee3611ab3565b5b611ef089828a01611e22565b9550506040611f0189828a01611ad9565b9450506060611f1289828a01611ad9565b9350506080611f2389828a01611e67565b92505060a0611f3489828a01611ad9565b9150509295509295509295565b600081519050919050565b600082825260208201905092915050565b6000819050602082019050919050565b611f7681611b3b565b82525050565b600082825260208201905092915050565b6000611f9882611b5c565b611fa28185611f7c565b9350611fb2818560208601611b78565b611fbb81611ba2565b840191505092915050565b611fcf81611ab8565b82525050565b611fde81611bfb565b82525050565b600061014083016000830151611ffd6000860182611f6d565b50602083015184820360208601526120158282611f8d565b9150506040830151848203604086015261202f8282611f8d565b91505060608301516120446060860182611fc6565b5060808301516120576080860182611fc6565b5060a083015161206a60a0860182611fc6565b5060c083015161207d60c0860182611fd5565b5060e083015161209060e0860182611fd5565b506101008301516120a5610100860182611fc6565b506101208301516120ba610120860182611fd5565b508091505092915050565b60006120d18383611fe4565b905092915050565b6000602082019050919050565b60006120f182611f41565b6120fb8185611f4c565b93508360208202850161210d85611f5d565b8060005b85811015612149578484038952815161212a85826120c5565b9450612135836120d9565b925060208a01995050600181019050612111565b50829750879550505050505092915050565b6000602082019050818103600083015261217581846120e6565b905092915050565b61218681611b3b565b811461219157600080fd5b50565b6000813590506121a38161217d565b92915050565b600080604083850312156121c0576121bf611aae565b5b60006121ce85828601611ad9565b92505060206121df85828601612194565b9150509250929050565b60006020820190506121fe6000830184611bec565b92915050565b600081519050919050565b600082825260208201905092915050565b6000819050602082019050919050565b600061223c8383611f6d565b60208301905092915050565b6000602082019050919050565b600061226082612204565b61226a818561220f565b935061227583612220565b8060005b838110156122a657815161228d8882612230565b975061229883612248565b925050600181019050612279565b5085935050505092915050565b600081519050919050565b600082825260208201905092915050565b6000819050602082019050919050565b60006122eb8383611fc6565b60208301905092915050565b6000602082019050919050565b600061230f826122b3565b61231981856122be565b9350612324836122cf565b8060005b8381101561235557815161233c88826122df565b9750612347836122f7565b925050600181019050612328565b5085935050505092915050565b6000604082019050818103600083015261237c8185612255565b905081810360208301526123908184612304565b90509392505050565b6000610140830160008301516123b26000860182611f6d565b50602083015184820360208601526123ca8282611f8d565b915050604083015184820360408601526123e48282611f8d565b91505060608301516123f96060860182611fc6565b50608083015161240c6080860182611fc6565b5060a083015161241f60a0860182611fc6565b5060c083015161243260c0860182611fd5565b5060e083015161244560e0860182611fd5565b5061010083015161245a610100860182611fc6565b5061012083015161246f610120860182611fd5565b508091505092915050565b600060208201905081810360008301526124948184612399565b905092915050565b7f4e487b7100000000000000000000000000000000000000000000000000000000600052602260045260246000fd5b600060028204905060018216806124e357607f821691505b6020821081036124f6576124f561249c565b5b50919050565b7f476f616c206d7573742062652067726561746572207468616e207a65726f0000600082015250565b6000612532601e83611b67565b915061253d826124fc565b602082019050919050565b6000602082019050818103600083015261256181612525565b9050919050565b7f446561646c696e65206d75737420626520696e20746865206675747572650000600082015250565b600061259e601e83611b67565b91506125a982612568565b602082019050919050565b600060208201905081810360008301526125cd81612591565b9050919050565b7f466978656420646f6e6174696f6e20616d6f756e74206d75737420626520677260008201527f6561746572207468616e206f7220657175616c20746f206d696e696d756d206460208201527f6f6e6174696f6e20616d6f756e74000000000000000000000000000000000000604082015250565b6000612656604e83611b67565b9150612661826125d4565b606082019050919050565b6000602082019050818103600083015261268581612649565b9050919050565b60008190508160005260206000209050919050565b60006020601f8301049050919050565b600082821b905092915050565b6000600883026126ee7fffffffffffffffffffffffffffffffffffffffffffffffffffffffffffffffff826126b1565b6126f886836126b1565b95508019841693508086168417925050509392505050565b6000819050919050565b600061273561273061272b84611ab8565b612710565b611ab8565b9050919050565b6000819050919050565b61274f8361271a565b61276361275b8261273c565b8484546126be565b825550505050565b600090565b61277861276b565b612783818484612746565b505050565b5b818110156127a75761279c600082612770565b600181019050612789565b5050565b601f8211156127ec576127bd8161268c565b6127c6846126a1565b810160208510156127d5578190505b6127e96127e1856126a1565b830182612788565b50505b505050565b600082821c905092915050565b600061280f600019846008026127f1565b1980831691505092915050565b600061282883836127fe565b9150826002028217905092915050565b61284182611b5c565b67ffffffffffffffff81111561285a57612859611d25565b5b61286482546124cb565b61286f8282856127ab565b600060209050601f8311600181146128a25760008415612890578287015190505b61289a858261281c565b865550612902565b601f1984166128b08661268c565b60005b828110156128d8578489015182556001820191506020850194506020810190506128b3565b868310156128f557848901516128f1601f8916826127fe565b8355505b6001600288020188555050505b505050505050565b7f4e487b7100000000000000000000000000000000000000000000000000000000600052601160045260246000fd5b600061294482611ab8565b915061294f83611ab8565b92508282039050818111156129675761296661290a565b5b92915050565b600060608201905081810360008301526129878186611bb3565b90506129966020830185611bec565b6129a36040830184611bec565b949350505050565b7f4e487b7100000000000000000000000000000000000000000000000000000000600052603260045260246000fd5b7f496e76616c69642070726f6a6563742049440000000000000000000000000000600082015250565b6000612a10601283611b67565b9150612a1b826129da565b602082019050919050565b60006020820190508181036000830152612a3f81612a03565b9050919050565b7f446561646c696e6520686173206e6f74206265656e207265616368656420796560008201527f7400000000000000000000000000000000000000000000000000000000000000602082015250565b6000612aa2602183611b67565b9150612aad82612a46565b604082019050919050565b60006020820190508181036000830152612ad181612a95565b9050919050565b7f50726f6a65637420676f616c20616c7265616479206d65740000000000000000600082015250565b6000612b0e601883611b67565b9150612b1982612ad8565b602082019050919050565b60006020820190508181036000830152612b3d81612b01565b9050919050565b7f50726f6a65637420676f616c206e6f74206d657420746f20626520656c69676960008201527f626c6520666f7220726566756e642e0000000000000000000000000000000000602082015250565b6000612ba0602f83611b67565b9150612bab82612b44565b604082019050919050565b60006020820190508181036000830152612bcf81612b93565b9050919050565b7f446f6e6174696f6e7320666f7220746869732070726f6a65637420686176652060008201527f616c7265616479206265656e20726566756e6465640000000000000000000000602082015250565b6000612c32603583611b67565b9150612c3d82612bd6565b604082019050919050565b60006020820190508181036000830152612c6181612c25565b9050919050565b6000612c7382611ab8565b9150612c7e83611ab8565b9250828202612c8c81611ab8565b91508282048414831517612ca357612ca261290a565b5b5092915050565b7f4e487b7100000000000000000000000000000000000000000000000000000000600052601260045260246000fd5b6000612ce482611ab8565b9150612cef83611ab8565b925082612cff57612cfe612caa565b5b828204905092915050565b600081905092915050565b50565b6000612d25600083612d0a565b9150612d3082612d15565b600082019050919050565b6000612d4682612d18565b9150819050919050565b7f446561646c696e65206861732070617373656400000000000000000000000000600082015250565b6000612d86601383611b67565b9150612d9182612d50565b602082019050919050565b60006020820190508181036000830152612db581612d79565b9050919050565b7f50726f6a65637420616c726561647920636f6d706c6574656400000000000000600082015250565b6000612df2601983611b67565b9150612dfd82612dbc565b602082019050919050565b60006020820190508181036000830152612e2181612de5565b9050919050565b7f50726f6a65637420686173206265656e20726566756e64656400000000000000600082015250565b6000612e5e601983611b67565b9150612e6982612e28565b602082019050919050565b60006020820190508181036000830152612e8d81612e51565b9050919050565b7f446f6e6174696f6e20616d6f756e74206d757374206265206174206c6561737460008201527f20302e3030312045746865720000000000000000000000000000000000000000602082015250565b6000612ef0602c83611b67565b9150612efb82612e94565b604082019050919050565b60006020820190508181036000830152612f1f81612ee3565b9050919050565b7f4d7573742073656e6420657861637420666978656420646f6e6174696f6e206160008201527f6d6f756e74000000000000000000000000000000000000000000000000000000602082015250565b6000612f82602583611b67565b9150612f8d82612f26565b604082019050919050565b60006020820190508181036000830152612fb181612f75565b9050919050565b7f4661696c656420746f2073656e642066656520746f206665652077616c6c6574600082015250565b6000612fee602083611b67565b9150612ff982612fb8565b602082019050919050565b6000602082019050818103600083015261301d81612fe1565b9050919050565b600061302f82611ab8565b915061303a83611ab8565b92508282019050808211156130525761305161290a565b5b92915050565b7f4661696c656420746f2073656e642066756e647320746f2070726f6a6563742060008201527f6f776e6572000000000000000000000000000000000000000000000000000000602082015250565b60006130b4602583611b67565b91506130bf82613058565b604082019050919050565b600060208201905081810360008301526130e3816130a7565b905091905056fea26469706673582212205b45785b49d0704594d38db6c80c26936d99bc522454e37820f520361bd69ac864736f6c634300081c0033",
  "linkReferences": {},
  "deployedLinkReferences": {}
}