{
  "_format": "hh-sol-artifact-1",
  "contractName": "Crowdfunding",
  "sourceName": "contracts/Crowdfunding.sol",
  "abi": [
    {
      "inputs": [
        {
          "internalType": "address",
          "name": "_feeWallet",
          "type": "address"
        }
      ],
      "stateMutability": "nonpayable",
      "type": "constructor"
    },
    {
      "anonymous": false,
      "inputs": [
        {
          "indexed": true,
          "internalType": "uint256",
          "name": "projectId",
          "type": "uint256"
        },
        {
          "indexed": true,
          "internalType": "address",
          "name": "donor",
          "type": "address"
        },
        {
          "indexed": false,
          "internalType": "uint256",
          "name": "amount",
          "type": "uint256"
        }
      ],
      "name": "DonationReceived",
      "type": "event"
    },
    {
      "anonymous": false,
      "inputs": [
        {
          "indexed": true,
          "internalType": "uint256",
          "name": "projectId",
          "type": "uint256"
        },
        {
          "indexed": true,
          "internalType": "address",
          "name": "donor",
          "type": "address"
        },
        {
          "indexed": false,
          "internalType": "uint256",
          "name": "amount",
          "type": "uint256"
        },
        {
          "indexed": true,
          "internalType": "address",
          "name": "feeRecipient",
          "type": "address"
        }
      ],
      "name": "FeePaid",
      "type": "event"
    },
    {
      "anonymous": false,
      "inputs": [
        {
          "indexed": true,
          "internalType": "uint256",
          "name": "projectId",
          "type": "uint256"
        },
        {
          "indexed": true,
          "internalType": "address",
          "name": "owner",
          "type": "address"
        },
        {
          "indexed": false,
          "internalType": "uint256",
          "name": "amount",
          "type": "uint256"
        }
      ],
      "name": "FundsWithdrawn",
      "type": "event"
    },
    {
      "anonymous": false,
      "inputs": [
        {
          "indexed": true,
          "internalType": "uint256",
          "name": "projectId",
          "type": "uint256"
        },
        {
          "indexed": true,
          "internalType": "address",
          "name": "owner",
          "type": "address"
        },
        {
          "indexed": false,
          "internalType": "string",
          "name": "title",
          "type": "string"
        },
        {
          "indexed": false,
          "internalType": "uint256",
          "name": "goal",
          "type": "uint256"
        },
        {
          "indexed": false,
          "internalType": "uint256",
          "name": "deadline",
          "type": "uint256"
        }
      ],
      "name": "ProjectCreated",
      "type": "event"
    },
    {
      "anonymous": false,
      "inputs": [
        {
          "indexed": true,
          "internalType": "uint256",
          "name": "projectId",
          "type": "uint256"
        },
        {
          "indexed": true,
          "internalType": "address",
          "name": "donor",
          "type": "address"
        },
        {
          "indexed": false,
          "internalType": "uint256",
          "name": "amountRefunded",
          "type": "uint256"
        }
      ],
      "name": "RefundClaimed",
      "type": "event"
    },
    {
      "inputs": [
        {
          "internalType": "uint256",
          "name": "_projectId",
          "type": "uint256"
        }
      ],
      "name": "claimRefund",
      "outputs": [],
      "stateMutability": "nonpayable",
      "type": "function"
    },
    {
      "inputs": [
        {
          "internalType": "string",
          "name": "_title",
          "type": "string"
        },
        {
          "internalType": "string",
          "name": "_description",
          "type": "string"
        },
        {
          "internalType": "uint256",
          "name": "_goal",
          "type": "uint256"
        },
        {
          "internalType": "uint256",
          "name": "_deadlineTimestamp",
          "type": "uint256"
        },
        {
          "internalType": "bool",
          "name": "_fixedDonationAmount",
          "type": "bool"
        },
        {
          "internalType": "uint256",
          "name": "_requiredDonationAmount",
          "type": "uint256"
        }
      ],
      "name": "createProject",
      "outputs": [],
      "stateMutability": "nonpayable",
      "type": "function"
    },
    {
      "inputs": [
        {
          "internalType": "uint256",
          "name": "_projectId",
          "type": "uint256"
        }
      ],
      "name": "donate",
      "outputs": [],
      "stateMutability": "payable",
      "type": "function"
    },
    {
      "inputs": [
        {
          "internalType": "uint256",
          "name": "",
          "type": "uint256"
        },
        {
          "internalType": "address",
          "name": "",
          "type": "address"
        }
      ],
      "name": "donations",
      "outputs": [
        {
          "internalType": "uint256",
          "name": "",
          "type": "uint256"
        }
      ],
      "stateMutability": "view",
      "type": "function"
    },
    {
      "inputs": [],
      "name": "feeWallet",
      "outputs": [
        {
          "internalType": "address",
          "name": "",
          "type": "address"
        }
      ],
      "stateMutability": "view",
      "type": "function"
    },
    {
      "inputs": [],
      "name": "getAllProjects",
      "outputs": [
        {
          "components": [
            {
              "internalType": "address",
              "name": "owner",
              "type": "address"
            },
            {
              "internalType": "string",
              "name": "title",
              "type": "string"
            },
            {
              "internalType": "string",
              "name": "description",
              "type": "string"
            },
            {
              "internalType": "uint256",
              "name": "goal",
              "type": "uint256"
            },
            {
              "internalType": "uint256",
              "name": "deadline",
              "type": "uint256"
            },
            {
              "internalType": "uint256",
              "name": "amountRaised",
              "type": "uint256"
            },
            {
              "internalType": "bool",
              "name": "completed",
              "type": "bool"
            },
            {
              "internalType": "bool",
              "name": "fixedDonationAmount",
              "type": "bool"
            },
            {
              "internalType": "uint256",
              "name": "requiredDonationAmount",
              "type": "uint256"
            },
            {
              "internalType": "bool",
              "name": "withdrawn",
              "type": "bool"
            }
          ],
          "internalType": "struct Crowdfunding.Project[]",
          "name": "",
          "type": "tuple[]"
        }
      ],
      "stateMutability": "view",
      "type": "function"
    },
    {
      "inputs": [
        {
          "internalType": "uint256",
          "name": "_projectId",
          "type": "uint256"
        },
        {
          "internalType": "address",
          "name": "_donor",
          "type": "address"
        }
      ],
      "name": "getDonation",
      "outputs": [
        {
          "internalType": "uint256",
          "name": "",
          "type": "uint256"
        }
      ],
      "stateMutability": "view",
      "type": "function"
    },
    {
      "inputs": [
        {
          "internalType": "uint256",
          "name": "_projectId",
          "type": "uint256"
        }
      ],
      "name": "getProject",
      "outputs": [
        {
          "components": [
            {
              "internalType": "address",
              "name": "owner",
              "type": "address"
            },
            {
              "internalType": "string",
              "name": "title",
              "type": "string"
            },
            {
              "internalType": "string",
              "name": "description",
              "type": "string"
            },
            {
              "internalType": "uint256",
              "name": "goal",
              "type": "uint256"
            },
            {
              "internalType": "uint256",
              "name": "deadline",
              "type": "uint256"
            },
            {
              "internalType": "uint256",
              "name": "amountRaised",
              "type": "uint256"
            },
            {
              "internalType": "bool",
              "name": "completed",
              "type": "bool"
            },
            {
              "internalType": "bool",
              "name": "fixedDonationAmount",
              "type": "bool"
            },
            {
              "internalType": "uint256",
              "name": "requiredDonationAmount",
              "type": "uint256"
            },
            {
              "internalType": "bool",
              "name": "withdrawn",
              "type": "bool"
            }
          ],
          "internalType": "struct Crowdfunding.Project",
          "name": "",
          "type": "tuple"
        }
      ],
      "stateMutability": "view",
      "type": "function"
    },
    {
      "inputs": [
        {
          "internalType": "uint256",
          "name": "_projectId",
          "type": "uint256"
        }
      ],
      "name": "getProjectDonorsWithAmounts",
      "outputs": [
        {
          "internalType": "address[]",
          "name": "addresses_",
          "type": "address[]"
        },
        {
          "internalType": "uint256[]",
          "name": "amounts_",
          "type": "uint256[]"
        }
      ],
      "stateMutability": "view",
      "type": "function"
    },
    {
      "inputs": [],
      "name": "getProjectsCount",
      "outputs": [
        {
          "internalType": "uint256",
          "name": "",
          "type": "uint256"
        }
      ],
      "stateMutability": "view",
      "type": "function"
    },
    {
      "inputs": [
        {
          "internalType": "uint256",
          "name": "",
          "type": "uint256"
        },
        {
          "internalType": "uint256",
          "name": "",
          "type": "uint256"
        }
      ],
      "name": "projectDonors",
      "outputs": [
        {
          "internalType": "address",
          "name": "",
          "type": "address"
        }
      ],
      "stateMutability": "view",
      "type": "function"
    },
    {
      "inputs": [
        {
          "internalType": "uint256",
          "name": "",
          "type": "uint256"
        }
      ],
      "name": "projects",
      "outputs": [
        {
          "internalType": "address",
          "name": "owner",
          "type": "address"
        },
        {
          "internalType": "string",
          "name": "title",
          "type": "string"
        },
        {
          "internalType": "string",
          "name": "description",
          "type": "string"
        },
        {
          "internalType": "uint256",
          "name": "goal",
          "type": "uint256"
        },
        {
          "internalType": "uint256",
          "name": "deadline",
          "type": "uint256"
        },
        {
          "internalType": "uint256",
          "name": "amountRaised",
          "type": "uint256"
        },
        {
          "internalType": "bool",
          "name": "completed",
          "type": "bool"
        },
        {
          "internalType": "bool",
          "name": "fixedDonationAmount",
          "type": "bool"
        },
        {
          "internalType": "uint256",
          "name": "requiredDonationAmount",
          "type": "uint256"
        },
        {
          "internalType": "bool",
          "name": "withdrawn",
          "type": "bool"
        }
      ],
      "stateMutability": "view",
      "type": "function"
    },
    {
      "inputs": [
        {
          "internalType": "uint256",
          "name": "_projectId",
          "type": "uint256"
        }
      ],
      "name": "withdrawFunds",
      "outputs": [],
      "stateMutability": "nonpayable",
      "type": "function"
    }
  ],
  "bytecode": "0x608060405234801561001057600080fd5b50604051613b6f380380613b6f8339818101604052810190610032919061014b565b600073ffffffffffffffffffffffffffffffffffffffff168173ffffffffffffffffffffffffffffffffffffffff16036100a1576040517f08c379a0000000000000000000000000000000000000000000000000000000008152600401610098906101fb565b60405180910390fd5b80600360006101000a81548173ffffffffffffffffffffffffffffffffffffffff021916908373ffffffffffffffffffffffffffffffffffffffff1602179055505061021b565b600080fd5b600073ffffffffffffffffffffffffffffffffffffffff82169050919050565b6000610118826100ed565b9050919050565b6101288161010d565b811461013357600080fd5b50565b6000815190506101458161011f565b92915050565b600060208284031215610161576101606100e8565b5b600061016f84828501610136565b91505092915050565b600082825260208201905092915050565b7f4665652077616c6c65742063616e6e6f74206265207a65726f2061646472657360008201527f7300000000000000000000000000000000000000000000000000000000000000602082015250565b60006101e5602183610178565b91506101f082610189565b604082019050919050565b60006020820190508181036000830152610214816101d8565b9050919050565b6139458061022a6000396000f3fe6080604052600436106100c25760003560e01c8063c2bacfa81161007f578063ee1554a311610059578063ee1554a314610296578063f0f3f2c8146102d3578063f14faf6f14610310578063f25f4b561461032c576100c2565b8063c2bacfa8146101f0578063d466aeea1461022d578063e4a8f18b1461026b576100c2565b8063107046bd146100c7578063155dd5ee1461010d578063485ff82a146101365780635b01e808146101735780635b7baf641461019c57806380d03829146101c5575b600080fd5b3480156100d357600080fd5b506100ee60048036038101906100e99190611e83565b610357565b6040516101049a99989796959493929190611fab565b60405180910390f35b34801561011957600080fd5b50610134600480360381019061012f9190611e83565b610512565b005b34801561014257600080fd5b5061015d60048036038101906101589190612055565b610867565b60405161016a9190612095565b60405180910390f35b34801561017f57600080fd5b5061019a60048036038101906101959190612211565b6108b5565b005b3480156101a857600080fd5b506101c360048036038101906101be9190611e83565b610b90565b005b3480156101d157600080fd5b506101da610ff5565b6040516101e791906124f0565b60405180910390f35b3480156101fc57600080fd5b506102176004803603810190610212919061253e565b6112b7565b604051610224919061257e565b60405180910390f35b34801561023957600080fd5b50610254600480360381019061024f9190611e83565b611312565b6040516102629291906126f7565b60405180910390f35b34801561027757600080fd5b50610280611535565b60405161028d919061257e565b60405180910390f35b3480156102a257600080fd5b506102bd60048036038101906102b8919061253e565b611541565b6040516102ca919061257e565b60405180910390f35b3480156102df57600080fd5b506102fa60048036038101906102f59190611e83565b611566565b604051610307919061280f565b60405180910390f35b61032a60048036038101906103259190611e83565b6117dd565b005b34801561033857600080fd5b50610341611da4565b60405161034e9190612095565b60405180910390f35b6000818154811061036757600080fd5b90600052602060002090600902016000915090508060000160009054906101000a900473ffffffffffffffffffffffffffffffffffffffff16908060010180546103b090612860565b80601f01602080910402602001604051908101604052809291908181526020018280546103dc90612860565b80156104295780601f106103fe57610100808354040283529160200191610429565b820191906000526020600020905b81548152906001019060200180831161040c57829003601f168201915b50505050509080600201805461043e90612860565b80601f016020809104026020016040519081016040528092919081815260200182805461046a90612860565b80156104b75780601f1061048c576101008083540402835291602001916104b7565b820191906000526020600020905b81548152906001019060200180831161049a57829003601f168201915b5050505050908060030154908060040154908060050154908060060160009054906101000a900460ff16908060060160019054906101000a900460ff16908060070154908060080160009054906101000a900460ff1690508a565b6000805490508110610559576040517f08c379a0000000000000000000000000000000000000000000000000000000008152600401610550906128dd565b60405180910390fd5b600080828154811061056e5761056d6128fd565b5b906000526020600020906009020190508060000160009054906101000a900473ffffffffffffffffffffffffffffffffffffffff1673ffffffffffffffffffffffffffffffffffffffff163373ffffffffffffffffffffffffffffffffffffffff1614610610576040517f08c379a00000000000000000000000000000000000000000000000000000000081526004016106079061299e565b60405180910390fd5b8060060160009054906101000a900460ff16610661576040517f08c379a000000000000000000000000000000000000000000000000000000000815260040161065890612a30565b60405180910390fd5b60008160050154116106a8576040517f08c379a000000000000000000000000000000000000000000000000000000000815260040161069f90612a9c565b60405180910390fd5b8060080160009054906101000a900460ff16156106fa576040517f08c379a00000000000000000000000000000000000000000000000000000000081526004016106f190612b2e565b60405180910390fd5b60018160080160006101000a81548160ff02191690831515021790555060008160000160009054906101000a900473ffffffffffffffffffffffffffffffffffffffff1673ffffffffffffffffffffffffffffffffffffffff16826005015460405161076590612b7f565b60006040518083038185875af1925050503d80600081146107a2576040519150601f19603f3d011682016040523d82523d6000602084013e6107a7565b606091505b50509050806107eb576040517f08c379a00000000000000000000000000000000000000000000000000000000081526004016107e290612c06565b60405180910390fd5b8160000160009054906101000a900473ffffffffffffffffffffffffffffffffffffffff1673ffffffffffffffffffffffffffffffffffffffff16837ff440aec6b52895984d061d622e6edeba6210f7c3e059be920663140c084560d7846005015460405161085a919061257e565b60405180910390a3505050565b6002602052816000526040600020818154811061088357600080fd5b906000526020600020016000915091509054906101000a900473ffffffffffffffffffffffffffffffffffffffff1681565b600084116108f8576040517f08c379a00000000000000000000000000000000000000000000000000000000081526004016108ef90612c72565b60405180910390fd5b42831161093a576040517f08c379a000000000000000000000000000000000000000000000000000000000815260040161093190612cde565b60405180910390fd5b811561098b5766038d7ea4c6800081101561098a576040517f08c379a000000000000000000000000000000000000000000000000000000000815260040161098190612d96565b60405180910390fd5b5b60006040518061014001604052803373ffffffffffffffffffffffffffffffffffffffff168152602001888152602001878152602001868152602001858152602001600081526020016000151581526020018415158152602001838152602001600015158152509050600081908060018154018082558091505060019003906000526020600020906009020160009091909190915060008201518160000160006101000a81548173ffffffffffffffffffffffffffffffffffffffff021916908373ffffffffffffffffffffffffffffffffffffffff1602179055506020820151816001019081610a7c9190612f62565b506040820151816002019081610a929190612f62565b50606082015181600301556080820151816004015560a0820151816005015560c08201518160060160006101000a81548160ff02191690831515021790555060e08201518160060160016101000a81548160ff02191690831515021790555061010082015181600701556101208201518160080160006101000a81548160ff02191690831515021790555050503373ffffffffffffffffffffffffffffffffffffffff166001600080549050610b489190613063565b7f483013d4a1d5e8ba43089bda8f1a92b959e32d6fc582556f800267dd809e589389888560800151604051610b7f93929190613097565b60405180910390a350505050505050565b6000805490508110610bd7576040517f08c379a0000000000000000000000000000000000000000000000000000000008152600401610bce906128dd565b60405180910390fd5b6000808281548110610bec57610beb6128fd565b5b906000526020600020906009020190508060040154421015610c43576040517f08c379a0000000000000000000000000000000000000000000000000000000008152600401610c3a90613147565b60405180910390fd5b8060060160009054906101000a900460ff1615610c95576040517f08c379a0000000000000000000000000000000000000000000000000000000008152600401610c8c906131d9565b60405180910390fd5b8060030154816005015410610cdf576040517f08c379a0000000000000000000000000000000000000000000000000000000008152600401610cd69061326b565b60405180910390fd5b8060080160009054906101000a900460ff1615610d31576040517f08c379a0000000000000000000000000000000000000000000000000000000008152600401610d28906132fd565b60405180910390fd5b60006001600084815260200190815260200160002060003373ffffffffffffffffffffffffffffffffffffffff1673ffffffffffffffffffffffffffffffffffffffff16815260200190815260200160002054905060008111610dc9576040517f08c379a0000000000000000000000000000000000000000000000000000000008152600401610dc09061338f565b60405180910390fd5b6000612710601983610ddb91906133af565b610de59190613420565b905060008183610df59190613063565b905060008111610e3a576040517f08c379a0000000000000000000000000000000000000000000000000000000008152600401610e31906134c3565b60405180910390fd5b8084600501541015610e81576040517f08c379a0000000000000000000000000000000000000000000000000000000008152600401610e7890613555565b60405180910390fd5b60006001600087815260200190815260200160002060003373ffffffffffffffffffffffffffffffffffffffff1673ffffffffffffffffffffffffffffffffffffffff1681526020019081526020016000208190555080846005016000828254610eeb9190613063565b9250508190555060003373ffffffffffffffffffffffffffffffffffffffff1682604051610f1890612b7f565b60006040518083038185875af1925050503d8060008114610f55576040519150601f19603f3d011682016040523d82523d6000602084013e610f5a565b606091505b5050905080610f9e576040517f08c379a0000000000000000000000000000000000000000000000000000000008152600401610f95906135c1565b60405180910390fd5b3373ffffffffffffffffffffffffffffffffffffffff16867ff3f402280ef0a7905e124aa621b65eaeb2725c343e8b36d398ed78c29daf285c84604051610fe5919061257e565b60405180910390a3505050505050565b60606000808054905067ffffffffffffffff811115611017576110166120ba565b5b60405190808252806020026020018201604052801561105057816020015b61103d611dca565b8152602001906001900390816110355790505b50905060005b6000805490508110156112af5760008181548110611077576110766128fd565b5b9060005260206000209060090201604051806101400160405290816000820160009054906101000a900473ffffffffffffffffffffffffffffffffffffffff1673ffffffffffffffffffffffffffffffffffffffff1673ffffffffffffffffffffffffffffffffffffffff1681526020016001820180546110f790612860565b80601f016020809104026020016040519081016040528092919081815260200182805461112390612860565b80156111705780601f1061114557610100808354040283529160200191611170565b820191906000526020600020905b81548152906001019060200180831161115357829003601f168201915b5050505050815260200160028201805461118990612860565b80601f01602080910402602001604051908101604052809291908181526020018280546111b590612860565b80156112025780601f106111d757610100808354040283529160200191611202565b820191906000526020600020905b8154815290600101906020018083116111e557829003601f168201915b505050505081526020016003820154815260200160048201548152602001600582015481526020016006820160009054906101000a900460ff161515151581526020016006820160019054906101000a900460ff16151515158152602001600782015481526020016008820160009054906101000a900460ff161515151581525050828281518110611297576112966128fd565b5b60200260200101819052508080600101915050611056565b508091505090565b60006001600084815260200190815260200160002060008373ffffffffffffffffffffffffffffffffffffffff1673ffffffffffffffffffffffffffffffffffffffff16815260200190815260200160002054905092915050565b606080600080549050831061135c576040517f08c379a0000000000000000000000000000000000000000000000000000000008152600401611353906128dd565b60405180910390fd5b6000600260008581526020019081526020016000209050808054905067ffffffffffffffff811115611391576113906120ba565b5b6040519080825280602002602001820160405280156113bf5781602001602082028036833780820191505090505b509250808054905067ffffffffffffffff8111156113e0576113df6120ba565b5b60405190808252806020026020018201604052801561140e5781602001602082028036833780820191505090505b50915060005b818054905081101561152e576000828281548110611435576114346128fd565b5b9060005260206000200160009054906101000a900473ffffffffffffffffffffffffffffffffffffffff1690506001600087815260200190815260200160002060008273ffffffffffffffffffffffffffffffffffffffff1673ffffffffffffffffffffffffffffffffffffffff168152602001908152602001600020548483815181106114c6576114c56128fd565b5b602002602001018181525050808583815181106114e6576114e56128fd565b5b602002602001019073ffffffffffffffffffffffffffffffffffffffff16908173ffffffffffffffffffffffffffffffffffffffff1681525050508080600101915050611414565b5050915091565b60008080549050905090565b6001602052816000526040600020602052806000526040600020600091509150505481565b61156e611dca565b60008054905082106115b5576040517f08c379a00000000000000000000000000000000000000000000000000000000081526004016115ac906128dd565b60405180910390fd5b600082815481106115c9576115c86128fd565b5b9060005260206000209060090201604051806101400160405290816000820160009054906101000a900473ffffffffffffffffffffffffffffffffffffffff1673ffffffffffffffffffffffffffffffffffffffff1673ffffffffffffffffffffffffffffffffffffffff16815260200160018201805461164990612860565b80601f016020809104026020016040519081016040528092919081815260200182805461167590612860565b80156116c25780601f10611697576101008083540402835291602001916116c2565b820191906000526020600020905b8154815290600101906020018083116116a557829003601f168201915b505050505081526020016002820180546116db90612860565b80601f016020809104026020016040519081016040528092919081815260200182805461170790612860565b80156117545780601f1061172957610100808354040283529160200191611754565b820191906000526020600020905b81548152906001019060200180831161173757829003601f168201915b505050505081526020016003820154815260200160048201548152602001600582015481526020016006820160009054906101000a900460ff161515151581526020016006820160019054906101000a900460ff16151515158152602001600782015481526020016008820160009054906101000a900460ff1615151515815250509050919050565b6000805490508110611824576040517f08c379a000000000000000000000000000000000000000000000000000000000815260040161181b906128dd565b60405180910390fd5b6000808281548110611839576118386128fd565b5b906000526020600020906009020190508060040154421061188f576040517f08c379a00000000000000000000000000000000000000000000000000000000081526004016118869061362d565b60405180910390fd5b8060060160009054906101000a900460ff16156118e1576040517f08c379a00000000000000000000000000000000000000000000000000000000081526004016118d890613699565b60405180910390fd5b8060080160009054906101000a900460ff1615611933576040517f08c379a000000000000000000000000000000000000000000000000000000000815260040161192a9061372b565b60405180910390fd5b66038d7ea4c6800034101561197d576040517f08c379a0000000000000000000000000000000000000000000000000000000008152600401611974906137bd565b60405180910390fd5b8060060160019054906101000a900460ff16156119db57806007015434146119da576040517f08c379a00000000000000000000000000000000000000000000000000000000081526004016119d19061384f565b60405180910390fd5b5b60006127106019346119ed91906133af565b6119f79190613420565b905060008134611a079190613063565b90506000821115611b6a576000600360009054906101000a900473ffffffffffffffffffffffffffffffffffffffff1673ffffffffffffffffffffffffffffffffffffffff1683604051611a5a90612b7f565b60006040518083038185875af1925050503d8060008114611a97576040519150601f19603f3d011682016040523d82523d6000602084013e611a9c565b606091505b5050905080611ae0576040517f08c379a0000000000000000000000000000000000000000000000000000000008152600401611ad7906138bb565b60405180910390fd5b600360009054906101000a900473ffffffffffffffffffffffffffffffffffffffff1673ffffffffffffffffffffffffffffffffffffffff163373ffffffffffffffffffffffffffffffffffffffff16867fa38fe8fa2c91a01a78e49ff23316834fbbe7594cc31563cdc85f856eff9b351186604051611b60919061257e565b60405180910390a4505b6000805b6002600087815260200190815260200160002080549050811015611c24573373ffffffffffffffffffffffffffffffffffffffff16600260008881526020019081526020016000208281548110611bc857611bc76128fd565b5b9060005260206000200160009054906101000a900473ffffffffffffffffffffffffffffffffffffffff1673ffffffffffffffffffffffffffffffffffffffff1603611c175760019150611c24565b8080600101915050611b6e565b5080611c9f5760026000868152602001908152602001600020339080600181540180825580915050600190039060005260206000200160009091909190916101000a81548173ffffffffffffffffffffffffffffffffffffffff021916908373ffffffffffffffffffffffffffffffffffffffff1602179055505b81846005016000828254611cb391906138db565b92505081905550346001600087815260200190815260200160002060003373ffffffffffffffffffffffffffffffffffffffff1673ffffffffffffffffffffffffffffffffffffffff1681526020019081526020016000206000828254611d1a91906138db565b925050819055503373ffffffffffffffffffffffffffffffffffffffff16857f0b5b4c52969ff7329ecf7ee536409fda87812b15a8622bc6e8cdeab3aee14a2634604051611d68919061257e565b60405180910390a38360030154846005015410611d9d5760018460060160006101000a81548160ff0219169083151502179055505b5050505050565b600360009054906101000a900473ffffffffffffffffffffffffffffffffffffffff1681565b604051806101400160405280600073ffffffffffffffffffffffffffffffffffffffff1681526020016060815260200160608152602001600081526020016000815260200160008152602001600015158152602001600015158152602001600081526020016000151581525090565b6000604051905090565b600080fd5b600080fd5b6000819050919050565b611e6081611e4d565b8114611e6b57600080fd5b50565b600081359050611e7d81611e57565b92915050565b600060208284031215611e9957611e98611e43565b5b6000611ea784828501611e6e565b91505092915050565b600073ffffffffffffffffffffffffffffffffffffffff82169050919050565b6000611edb82611eb0565b9050919050565b611eeb81611ed0565b82525050565b600081519050919050565b600082825260208201905092915050565b60005b83811015611f2b578082015181840152602081019050611f10565b60008484015250505050565b6000601f19601f8301169050919050565b6000611f5382611ef1565b611f5d8185611efc565b9350611f6d818560208601611f0d565b611f7681611f37565b840191505092915050565b611f8a81611e4d565b82525050565b60008115159050919050565b611fa581611f90565b82525050565b600061014082019050611fc1600083018d611ee2565b8181036020830152611fd3818c611f48565b90508181036040830152611fe7818b611f48565b9050611ff6606083018a611f81565b6120036080830189611f81565b61201060a0830188611f81565b61201d60c0830187611f9c565b61202a60e0830186611f9c565b612038610100830185611f81565b612046610120830184611f9c565b9b9a5050505050505050505050565b6000806040838503121561206c5761206b611e43565b5b600061207a85828601611e6e565b925050602061208b85828601611e6e565b9150509250929050565b60006020820190506120aa6000830184611ee2565b92915050565b600080fd5b600080fd5b7f4e487b7100000000000000000000000000000000000000000000000000000000600052604160045260246000fd5b6120f282611f37565b810181811067ffffffffffffffff82111715612111576121106120ba565b5b80604052505050565b6000612124611e39565b905061213082826120e9565b919050565b600067ffffffffffffffff8211156121505761214f6120ba565b5b61215982611f37565b9050602081019050919050565b82818337600083830152505050565b600061218861218384612135565b61211a565b9050828152602081018484840111156121a4576121a36120b5565b5b6121af848285612166565b509392505050565b600082601f8301126121cc576121cb6120b0565b5b81356121dc848260208601612175565b91505092915050565b6121ee81611f90565b81146121f957600080fd5b50565b60008135905061220b816121e5565b92915050565b60008060008060008060c0878903121561222e5761222d611e43565b5b600087013567ffffffffffffffff81111561224c5761224b611e48565b5b61225889828a016121b7565b965050602087013567ffffffffffffffff81111561227957612278611e48565b5b61228589828a016121b7565b955050604061229689828a01611e6e565b94505060606122a789828a01611e6e565b93505060806122b889828a016121fc565b92505060a06122c989828a01611e6e565b9150509295509295509295565b600081519050919050565b600082825260208201905092915050565b6000819050602082019050919050565b61230b81611ed0565b82525050565b600082825260208201905092915050565b600061232d82611ef1565b6123378185612311565b9350612347818560208601611f0d565b61235081611f37565b840191505092915050565b61236481611e4d565b82525050565b61237381611f90565b82525050565b6000610140830160008301516123926000860182612302565b50602083015184820360208601526123aa8282612322565b915050604083015184820360408601526123c48282612322565b91505060608301516123d9606086018261235b565b5060808301516123ec608086018261235b565b5060a08301516123ff60a086018261235b565b5060c083015161241260c086018261236a565b5060e083015161242560e086018261236a565b5061010083015161243a61010086018261235b565b5061012083015161244f61012086018261236a565b508091505092915050565b60006124668383612379565b905092915050565b6000602082019050919050565b6000612486826122d6565b61249081856122e1565b9350836020820285016124a2856122f2565b8060005b858110156124de57848403895281516124bf858261245a565b94506124ca8361246e565b925060208a019950506001810190506124a6565b50829750879550505050505092915050565b6000602082019050818103600083015261250a818461247b565b905092915050565b61251b81611ed0565b811461252657600080fd5b50565b60008135905061253881612512565b92915050565b6000806040838503121561255557612554611e43565b5b600061256385828601611e6e565b925050602061257485828601612529565b9150509250929050565b60006020820190506125936000830184611f81565b92915050565b600081519050919050565b600082825260208201905092915050565b6000819050602082019050919050565b60006125d18383612302565b60208301905092915050565b6000602082019050919050565b60006125f582612599565b6125ff81856125a4565b935061260a836125b5565b8060005b8381101561263b57815161262288826125c5565b975061262d836125dd565b92505060018101905061260e565b5085935050505092915050565b600081519050919050565b600082825260208201905092915050565b6000819050602082019050919050565b6000612680838361235b565b60208301905092915050565b6000602082019050919050565b60006126a482612648565b6126ae8185612653565b93506126b983612664565b8060005b838110156126ea5781516126d18882612674565b97506126dc8361268c565b9250506001810190506126bd565b5085935050505092915050565b6000604082019050818103600083015261271181856125ea565b905081810360208301526127258184612699565b90509392505050565b6000610140830160008301516127476000860182612302565b506020830151848203602086015261275f8282612322565b915050604083015184820360408601526127798282612322565b915050606083015161278e606086018261235b565b5060808301516127a1608086018261235b565b5060a08301516127b460a086018261235b565b5060c08301516127c760c086018261236a565b5060e08301516127da60e086018261236a565b506101008301516127ef61010086018261235b565b5061012083015161280461012086018261236a565b508091505092915050565b60006020820190508181036000830152612829818461272e565b905092915050565b7f4e487b7100000000000000000000000000000000000000000000000000000000600052602260045260246000fd5b6000600282049050600182168061287857607f821691505b60208210810361288b5761288a612831565b5b50919050565b7f496e76616c69642070726f6a6563742049440000000000000000000000000000600082015250565b60006128c7601283611efc565b91506128d282612891565b602082019050919050565b600060208201905081810360008301526128f6816128ba565b9050919050565b7f4e487b7100000000000000000000000000000000000000000000000000000000600052603260045260246000fd5b7f4f6e6c792070726f6a656374206f776e65722063616e2077697468647261772060008201527f66756e6473000000000000000000000000000000000000000000000000000000602082015250565b6000612988602583611efc565b91506129938261292c565b604082019050919050565b600060208201905081810360008301526129b78161297b565b9050919050565b7f50726f6a65637420676f616c20686173206e6f74206265656e206d657420796560008201527f7400000000000000000000000000000000000000000000000000000000000000602082015250565b6000612a1a602183611efc565b9150612a25826129be565b604082019050919050565b60006020820190508181036000830152612a4981612a0d565b9050919050565b7f4e6f2066756e647320746f207769746864726177000000000000000000000000600082015250565b6000612a86601483611efc565b9150612a9182612a50565b602082019050919050565b60006020820190508181036000830152612ab581612a79565b9050919050565b7f46756e6473206861766520616c7265616479206265656e20776974686472617760008201527f6e20666f7220746869732070726f6a6563740000000000000000000000000000602082015250565b6000612b18603283611efc565b9150612b2382612abc565b604082019050919050565b60006020820190508181036000830152612b4781612b0b565b9050919050565b600081905092915050565b50565b6000612b69600083612b4e565b9150612b7482612b59565b600082019050919050565b6000612b8a82612b5c565b9150819050919050565b7f4661696c656420746f2073656e642066756e647320746f2070726f6a6563742060008201527f6f776e6572000000000000000000000000000000000000000000000000000000602082015250565b6000612bf0602583611efc565b9150612bfb82612b94565b604082019050919050565b60006020820190508181036000830152612c1f81612be3565b9050919050565b7f476f616c206d7573742062652067726561746572207468616e207a65726f0000600082015250565b6000612c5c601e83611efc565b9150612c6782612c26565b602082019050919050565b60006020820190508181036000830152612c8b81612c4f565b9050919050565b7f446561646c696e65206d75737420626520696e20746865206675747572650000600082015250565b6000612cc8601e83611efc565b9150612cd382612c92565b602082019050919050565b60006020820190508181036000830152612cf781612cbb565b9050919050565b7f466978656420646f6e6174696f6e20616d6f756e74206d75737420626520677260008201527f6561746572207468616e206f7220657175616c20746f206d696e696d756d206460208201527f6f6e6174696f6e20616d6f756e74000000000000000000000000000000000000604082015250565b6000612d80604e83611efc565b9150612d8b82612cfe565b606082019050919050565b60006020820190508181036000830152612daf81612d73565b9050919050565b60008190508160005260206000209050919050565b60006020601f8301049050919050565b600082821b905092915050565b600060088302612e187fffffffffffffffffffffffffffffffffffffffffffffffffffffffffffffffff82612ddb565b612e228683612ddb565b95508019841693508086168417925050509392505050565b6000819050919050565b6000612e5f612e5a612e5584611e4d565b612e3a565b611e4d565b9050919050565b6000819050919050565b612e7983612e44565b612e8d612e8582612e66565b848454612de8565b825550505050565b600090565b612ea2612e95565b612ead818484612e70565b505050565b5b81811015612ed157612ec6600082612e9a565b600181019050612eb3565b5050565b601f821115612f1657612ee781612db6565b612ef084612dcb565b81016020851015612eff578190505b612f13612f0b85612dcb565b830182612eb2565b50505b505050565b600082821c905092915050565b6000612f3960001984600802612f1b565b1980831691505092915050565b6000612f528383612f28565b9150826002028217905092915050565b612f6b82611ef1565b67ffffffffffffffff811115612f8457612f836120ba565b5b612f8e8254612860565b612f99828285612ed5565b600060209050601f831160018114612fcc5760008415612fba578287015190505b612fc48582612f46565b86555061302c565b601f198416612fda86612db6565b60005b8281101561300257848901518255600182019150602085019450602081019050612fdd565b8683101561301f578489015161301b601f891682612f28565b8355505b6001600288020188555050505b505050505050565b7f4e487b7100000000000000000000000000000000000000000000000000000000600052601160045260246000fd5b600061306e82611e4d565b915061307983611e4d565b925082820390508181111561309157613090613034565b5b92915050565b600060608201905081810360008301526130b18186611f48565b90506130c06020830185611f81565b6130cd6040830184611f81565b949350505050565b7f446561646c696e6520686173206e6f74206265656e207265616368656420796560008201527f742e000000000000000000000000000000000000000000000000000000000000602082015250565b6000613131602283611efc565b915061313c826130d5565b604082019050919050565b6000602082019050818103600083015261316081613124565b9050919050565b7f50726f6a65637420676f616c20616c7265616479206d65742c206e6f2072656660008201527f756e64206e65656465642e000000000000000000000000000000000000000000602082015250565b60006131c3602b83611efc565b91506131ce82613167565b604082019050919050565b600060208201905081810360008301526131f2816131b6565b9050919050565b7f50726f6a65637420676f616c206d65742c206e6f7420656c696769626c65206660008201527f6f7220726566756e642e00000000000000000000000000000000000000000000602082015250565b6000613255602a83611efc565b9150613260826131f9565b604082019050919050565b6000602082019050818103600083015261328481613248565b9050919050565b7f46756e6473207765726520616c72656164792077697468647261776e2062792060008201527f6f776e65722c206e6f20726566756e6420706f737369626c652e000000000000602082015250565b60006132e7603a83611efc565b91506132f28261328b565b604082019050919050565b60006020820190508181036000830152613316816132da565b9050919050565b7f4e6f20646f6e6174696f6e20666f756e6420666f72207468697320616464726560008201527f7373206f7220616c726561647920726566756e6465642e000000000000000000602082015250565b6000613379603783611efc565b91506133848261331d565b604082019050919050565b600060208201905081810360008301526133a88161336c565b9050919050565b60006133ba82611e4d565b91506133c583611e4d565b92508282026133d381611e4d565b915082820484148315176133ea576133e9613034565b5b5092915050565b7f4e487b7100000000000000000000000000000000000000000000000000000000600052601260045260246000fd5b600061342b82611e4d565b915061343683611e4d565b925082613446576134456133f1565b5b828204905092915050565b7f4e657420726566756e6420616d6f756e74206973207a65726f206f72206c657360008201527f732e000000000000000000000000000000000000000000000000000000000000602082015250565b60006134ad602283611efc565b91506134b882613451565b604082019050919050565b600060208201905081810360008301526134dc816134a0565b9050919050565b7f496e73756666696369656e742070726f6a6563742066756e647320666f72207460008201527f68697320726566756e642e000000000000000000000000000000000000000000602082015250565b600061353f602b83611efc565b915061354a826134e3565b604082019050919050565b6000602082019050818103600083015261356e81613532565b9050919050565b7f4661696c656420746f2073656e6420726566756e6420746f20646f6e6f720000600082015250565b60006135ab601e83611efc565b91506135b682613575565b602082019050919050565b600060208201905081810360008301526135da8161359e565b9050919050565b7f446561646c696e65206861732070617373656400000000000000000000000000600082015250565b6000613617601383611efc565b9150613622826135e1565b602082019050919050565b600060208201905081810360008301526136468161360a565b9050919050565b7f50726f6a65637420616c726561647920636f6d706c6574656400000000000000600082015250565b6000613683601983611efc565b915061368e8261364d565b602082019050919050565b600060208201905081810360008301526136b281613676565b9050919050565b7f50726f6a6563742066756e64732068617665206265656e20776974686472617760008201527f6e00000000000000000000000000000000000000000000000000000000000000602082015250565b6000613715602183611efc565b9150613720826136b9565b604082019050919050565b6000602082019050818103600083015261374481613708565b9050919050565b7f446f6e6174696f6e20616d6f756e74206d757374206265206174206c6561737460008201527f20302e3030312045746865720000000000000000000000000000000000000000602082015250565b60006137a7602c83611efc565b91506137b28261374b565b604082019050919050565b600060208201905081810360008301526137d68161379a565b9050919050565b7f4d7573742073656e6420657861637420666978656420646f6e6174696f6e206160008201527f6d6f756e74000000000000000000000000000000000000000000000000000000602082015250565b6000613839602583611efc565b9150613844826137dd565b604082019050919050565b600060208201905081810360008301526138688161382c565b9050919050565b7f4661696c656420746f2073656e642066656520746f206665652077616c6c6574600082015250565b60006138a5602083611efc565b91506138b08261386f565b602082019050919050565b600060208201905081810360008301526138d481613898565b9050919050565b60006138e682611e4d565b91506138f183611e4d565b925082820190508082111561390957613908613034565b5b9291505056fea2646970667358221220d53157580728ce1285d0f9159b61281b156b1a6491f7be19a230eac396a9a7b864736f6c634300081c0033",
  "linkReferences": {},
  "deployedLinkReferences": {}
}