{
  "_format": "hh-sol-artifact-1",
  "contractName": "Crowdfunding",
  "sourceName": "contracts/Crowdfunding.sol",
  "abi": [
    {
      "inputs": [],
      "stateMutability": "nonpayable",
      "type": "constructor"
    },
    {
      "anonymous": false,
      "inputs": [
        {
          "indexed": true,
          "internalType": "uint256",
          "name": "projectId",
          "type": "uint256"
        },
        {
          "indexed": true,
          "internalType": "address",
          "name": "donor",
          "type": "address"
        },
        {
          "indexed": false,
          "internalType": "uint256",
          "name": "amount",
          "type": "uint256"
        }
      ],
      "name": "DonationReceived",
      "type": "event"
    },
    {
      "anonymous": false,
      "inputs": [
        {
          "indexed": true,
          "internalType": "uint256",
          "name": "projectId",
          "type": "uint256"
        },
        {
          "indexed": true,
          "internalType": "address",
          "name": "owner",
          "type": "address"
        },
        {
          "indexed": false,
          "internalType": "string",
          "name": "title",
          "type": "string"
        },
        {
          "indexed": false,
          "internalType": "uint256",
          "name": "goal",
          "type": "uint256"
        },
        {
          "indexed": false,
          "internalType": "uint256",
          "name": "deadline",
          "type": "uint256"
        }
      ],
      "name": "ProjectCreated",
      "type": "event"
    },
    {
      "anonymous": false,
      "inputs": [
        {
          "indexed": true,
          "internalType": "uint256",
          "name": "projectId",
          "type": "uint256"
        },
        {
          "indexed": true,
          "internalType": "address",
          "name": "donor",
          "type": "address"
        },
        {
          "indexed": false,
          "internalType": "uint256",
          "name": "amountRefunded",
          "type": "uint256"
        }
      ],
      "name": "RefundProcessed",
      "type": "event"
    },
    {
      "inputs": [
        {
          "internalType": "string",
          "name": "_title",
          "type": "string"
        },
        {
          "internalType": "string",
          "name": "_description",
          "type": "string"
        },
        {
          "internalType": "uint256",
          "name": "_goal",
          "type": "uint256"
        },
        {
          "internalType": "uint256",
          "name": "_deadlineTimestamp",
          "type": "uint256"
        },
        {
          "internalType": "bool",
          "name": "_fixedDonationAmount",
          "type": "bool"
        },
        {
          "internalType": "uint256",
          "name": "_requiredDonationAmount",
          "type": "uint256"
        }
      ],
      "name": "createProject",
      "outputs": [],
      "stateMutability": "nonpayable",
      "type": "function"
    },
    {
      "inputs": [
        {
          "internalType": "uint256",
          "name": "_projectId",
          "type": "uint256"
        }
      ],
      "name": "donate",
      "outputs": [],
      "stateMutability": "payable",
      "type": "function"
    },
    {
      "inputs": [
        {
          "internalType": "uint256",
          "name": "",
          "type": "uint256"
        },
        {
          "internalType": "address",
          "name": "",
          "type": "address"
        }
      ],
      "name": "donations",
      "outputs": [
        {
          "internalType": "uint256",
          "name": "",
          "type": "uint256"
        }
      ],
      "stateMutability": "view",
      "type": "function"
    },
    {
      "inputs": [],
      "name": "getAllProjects",
      "outputs": [
        {
          "components": [
            {
              "internalType": "address",
              "name": "owner",
              "type": "address"
            },
            {
              "internalType": "string",
              "name": "title",
              "type": "string"
            },
            {
              "internalType": "string",
              "name": "description",
              "type": "string"
            },
            {
              "internalType": "uint256",
              "name": "goal",
              "type": "uint256"
            },
            {
              "internalType": "uint256",
              "name": "deadline",
              "type": "uint256"
            },
            {
              "internalType": "uint256",
              "name": "amountRaised",
              "type": "uint256"
            },
            {
              "internalType": "bool",
              "name": "completed",
              "type": "bool"
            },
            {
              "internalType": "bool",
              "name": "fixedDonationAmount",
              "type": "bool"
            },
            {
              "internalType": "uint256",
              "name": "requiredDonationAmount",
              "type": "uint256"
            },
            {
              "internalType": "bool",
              "name": "refunded",
              "type": "bool"
            }
          ],
          "internalType": "struct Crowdfunding.Project[]",
          "name": "",
          "type": "tuple[]"
        }
      ],
      "stateMutability": "view",
      "type": "function"
    },
    {
      "inputs": [
        {
          "internalType": "uint256",
          "name": "_projectId",
          "type": "uint256"
        },
        {
          "internalType": "address",
          "name": "_donor",
          "type": "address"
        }
      ],
      "name": "getDonation",
      "outputs": [
        {
          "internalType": "uint256",
          "name": "",
          "type": "uint256"
        }
      ],
      "stateMutability": "view",
      "type": "function"
    },
    {
      "inputs": [
        {
          "internalType": "uint256",
          "name": "_projectId",
          "type": "uint256"
        }
      ],
      "name": "getProject",
      "outputs": [
        {
          "components": [
            {
              "internalType": "address",
              "name": "owner",
              "type": "address"
            },
            {
              "internalType": "string",
              "name": "title",
              "type": "string"
            },
            {
              "internalType": "string",
              "name": "description",
              "type": "string"
            },
            {
              "internalType": "uint256",
              "name": "goal",
              "type": "uint256"
            },
            {
              "internalType": "uint256",
              "name": "deadline",
              "type": "uint256"
            },
            {
              "internalType": "uint256",
              "name": "amountRaised",
              "type": "uint256"
            },
            {
              "internalType": "bool",
              "name": "completed",
              "type": "bool"
            },
            {
              "internalType": "bool",
              "name": "fixedDonationAmount",
              "type": "bool"
            },
            {
              "internalType": "uint256",
              "name": "requiredDonationAmount",
              "type": "uint256"
            },
            {
              "internalType": "bool",
              "name": "refunded",
              "type": "bool"
            }
          ],
          "internalType": "struct Crowdfunding.Project",
          "name": "",
          "type": "tuple"
        }
      ],
      "stateMutability": "view",
      "type": "function"
    },
    {
      "inputs": [
        {
          "internalType": "uint256",
          "name": "_projectId",
          "type": "uint256"
        }
      ],
      "name": "getProjectDonorsWithAmounts",
      "outputs": [
        {
          "internalType": "address[]",
          "name": "addresses_",
          "type": "address[]"
        },
        {
          "internalType": "uint256[]",
          "name": "amounts_",
          "type": "uint256[]"
        }
      ],
      "stateMutability": "view",
      "type": "function"
    },
    {
      "inputs": [],
      "name": "getProjectsCount",
      "outputs": [
        {
          "internalType": "uint256",
          "name": "",
          "type": "uint256"
        }
      ],
      "stateMutability": "view",
      "type": "function"
    },
    {
      "inputs": [
        {
          "internalType": "uint256",
          "name": "",
          "type": "uint256"
        },
        {
          "internalType": "uint256",
          "name": "",
          "type": "uint256"
        }
      ],
      "name": "projectDonors",
      "outputs": [
        {
          "internalType": "address",
          "name": "",
          "type": "address"
        }
      ],
      "stateMutability": "view",
      "type": "function"
    },
    {
      "inputs": [
        {
          "internalType": "uint256",
          "name": "",
          "type": "uint256"
        }
      ],
      "name": "projects",
      "outputs": [
        {
          "internalType": "address",
          "name": "owner",
          "type": "address"
        },
        {
          "internalType": "string",
          "name": "title",
          "type": "string"
        },
        {
          "internalType": "string",
          "name": "description",
          "type": "string"
        },
        {
          "internalType": "uint256",
          "name": "goal",
          "type": "uint256"
        },
        {
          "internalType": "uint256",
          "name": "deadline",
          "type": "uint256"
        },
        {
          "internalType": "uint256",
          "name": "amountRaised",
          "type": "uint256"
        },
        {
          "internalType": "bool",
          "name": "completed",
          "type": "bool"
        },
        {
          "internalType": "bool",
          "name": "fixedDonationAmount",
          "type": "bool"
        },
        {
          "internalType": "uint256",
          "name": "requiredDonationAmount",
          "type": "uint256"
        },
        {
          "internalType": "bool",
          "name": "refunded",
          "type": "bool"
        }
      ],
      "stateMutability": "view",
      "type": "function"
    },
    {
      "inputs": [
        {
          "internalType": "uint256",
          "name": "_projectId",
          "type": "uint256"
        }
      ],
      "name": "refundDonations",
      "outputs": [],
      "stateMutability": "nonpayable",
      "type": "function"
    }
  ],
  "bytecode": "0x6080604052348015600f57600080fd5b50612e6d8061001f6000396000f3fe60806040526004361061009c5760003560e01c8063c35d8ee511610064578063c35d8ee5146101b5578063d466aeea146101de578063e4a8f18b1461021c578063ee1554a314610247578063f0f3f2c814610284578063f14faf6f146102c15761009c565b8063107046bd146100a1578063485ff82a146100e75780635b01e8081461012457806380d038291461014d578063c2bacfa814610178575b600080fd5b3480156100ad57600080fd5b506100c860048036038101906100c391906118f3565b6102dd565b6040516100de9a99989796959493929190611a1b565b60405180910390f35b3480156100f357600080fd5b5061010e60048036038101906101099190611ac5565b610498565b60405161011b9190611b05565b60405180910390f35b34801561013057600080fd5b5061014b60048036038101906101469190611c81565b6104e6565b005b34801561015957600080fd5b506101626107ba565b60405161016f9190611f60565b60405180910390f35b34801561018457600080fd5b5061019f600480360381019061019a9190611fae565b610a7c565b6040516101ac9190611fee565b60405180910390f35b3480156101c157600080fd5b506101dc60048036038101906101d791906118f3565b610ad7565b005b3480156101ea57600080fd5b50610205600480360381019061020091906118f3565b610e66565b604051610213929190612167565b60405180910390f35b34801561022857600080fd5b50610231611089565b60405161023e9190611fee565b60405180910390f35b34801561025357600080fd5b5061026e60048036038101906102699190611fae565b611095565b60405161027b9190611fee565b60405180910390f35b34801561029057600080fd5b506102ab60048036038101906102a691906118f3565b6110ba565b6040516102b8919061227f565b60405180910390f35b6102db60048036038101906102d691906118f3565b611331565b005b600081815481106102ed57600080fd5b90600052602060002090600902016000915090508060000160009054906101000a900473ffffffffffffffffffffffffffffffffffffffff1690806001018054610336906122d0565b80601f0160208091040260200160405190810160405280929190818152602001828054610362906122d0565b80156103af5780601f10610384576101008083540402835291602001916103af565b820191906000526020600020905b81548152906001019060200180831161039257829003601f168201915b5050505050908060020180546103c4906122d0565b80601f01602080910402602001604051908101604052809291908181526020018280546103f0906122d0565b801561043d5780601f106104125761010080835404028352916020019161043d565b820191906000526020600020905b81548152906001019060200180831161042057829003601f168201915b5050505050908060030154908060040154908060050154908060060160009054906101000a900460ff16908060060160019054906101000a900460ff16908060070154908060080160009054906101000a900460ff1690508a565b600260205281600052604060002081815481106104b457600080fd5b906000526020600020016000915091509054906101000a900473ffffffffffffffffffffffffffffffffffffffff1681565b60008411610529576040517f08c379a00000000000000000000000000000000000000000000000000000000081526004016105209061234d565b60405180910390fd5b42831161056b576040517f08c379a0000000000000000000000000000000000000000000000000000000008152600401610562906123b9565b60405180910390fd5b81156105b557600081116105b4576040517f08c379a00000000000000000000000000000000000000000000000000000000081526004016105ab90612471565b60405180910390fd5b5b60006040518061014001604052803373ffffffffffffffffffffffffffffffffffffffff168152602001888152602001878152602001868152602001858152602001600081526020016000151581526020018415158152602001838152602001600015158152509050600081908060018154018082558091505060019003906000526020600020906009020160009091909190915060008201518160000160006101000a81548173ffffffffffffffffffffffffffffffffffffffff021916908373ffffffffffffffffffffffffffffffffffffffff16021790555060208201518160010190816106a6919061263d565b5060408201518160020190816106bc919061263d565b50606082015181600301556080820151816004015560a0820151816005015560c08201518160060160006101000a81548160ff02191690831515021790555060e08201518160060160016101000a81548160ff02191690831515021790555061010082015181600701556101208201518160080160006101000a81548160ff02191690831515021790555050503373ffffffffffffffffffffffffffffffffffffffff166001600080549050610772919061273e565b7f483013d4a1d5e8ba43089bda8f1a92b959e32d6fc582556f800267dd809e5893898885608001516040516107a993929190612772565b60405180910390a350505050505050565b60606000808054905067ffffffffffffffff8111156107dc576107db611b2a565b5b60405190808252806020026020018201604052801561081557816020015b61080261183a565b8152602001906001900390816107fa5790505b50905060005b600080549050811015610a74576000818154811061083c5761083b6127b0565b5b9060005260206000209060090201604051806101400160405290816000820160009054906101000a900473ffffffffffffffffffffffffffffffffffffffff1673ffffffffffffffffffffffffffffffffffffffff1673ffffffffffffffffffffffffffffffffffffffff1681526020016001820180546108bc906122d0565b80601f01602080910402602001604051908101604052809291908181526020018280546108e8906122d0565b80156109355780601f1061090a57610100808354040283529160200191610935565b820191906000526020600020905b81548152906001019060200180831161091857829003601f168201915b5050505050815260200160028201805461094e906122d0565b80601f016020809104026020016040519081016040528092919081815260200182805461097a906122d0565b80156109c75780601f1061099c576101008083540402835291602001916109c7565b820191906000526020600020905b8154815290600101906020018083116109aa57829003601f168201915b505050505081526020016003820154815260200160048201548152602001600582015481526020016006820160009054906101000a900460ff161515151581526020016006820160019054906101000a900460ff16151515158152602001600782015481526020016008820160009054906101000a900460ff161515151581525050828281518110610a5c57610a5b6127b0565b5b6020026020010181905250808060010191505061081b565b508091505090565b60006001600084815260200190815260200160002060008373ffffffffffffffffffffffffffffffffffffffff1673ffffffffffffffffffffffffffffffffffffffff16815260200190815260200160002054905092915050565b6000805490508110610b1e576040517f08c379a0000000000000000000000000000000000000000000000000000000008152600401610b159061282b565b60405180910390fd5b6000808281548110610b3357610b326127b0565b5b906000526020600020906009020190508060040154421015610b8a576040517f08c379a0000000000000000000000000000000000000000000000000000000008152600401610b81906128bd565b60405180910390fd5b8060060160009054906101000a900460ff1615610bdc576040517f08c379a0000000000000000000000000000000000000000000000000000000008152600401610bd390612929565b60405180910390fd5b8060030154816005015410610c26576040517f08c379a0000000000000000000000000000000000000000000000000000000008152600401610c1d90612995565b60405180910390fd5b8060080160009054906101000a900460ff1615610c78576040517f08c379a0000000000000000000000000000000000000000000000000000000008152600401610c6f90612a27565b60405180910390fd5b60018160080160006101000a81548160ff02191690831515021790555060005b6002600084815260200190815260200160002080549050811015610e61576000600260008581526020019081526020016000208281548110610cdd57610cdc6127b0565b5b9060005260206000200160009054906101000a900473ffffffffffffffffffffffffffffffffffffffff16905060006001600086815260200190815260200160002060008373ffffffffffffffffffffffffffffffffffffffff1673ffffffffffffffffffffffffffffffffffffffff1681526020019081526020016000205490506000811115610e525760006064606383610d799190612a47565b610d839190612ab8565b9050804710610e505760008373ffffffffffffffffffffffffffffffffffffffff1682604051610db290612b1a565b60006040518083038185875af1925050503d8060008114610def576040519150601f19603f3d011682016040523d82523d6000602084013e610df4565b606091505b505090508015610e4e578373ffffffffffffffffffffffffffffffffffffffff16877f79ff6a60b3e21b3630b207e2a7b0b50b69b197d3d7ca776108ed2afb8fbac8dc84604051610e459190611fee565b60405180910390a35b505b505b50508080600101915050610c98565b505050565b6060806000805490508310610eb0576040517f08c379a0000000000000000000000000000000000000000000000000000000008152600401610ea79061282b565b60405180910390fd5b6000600260008581526020019081526020016000209050808054905067ffffffffffffffff811115610ee557610ee4611b2a565b5b604051908082528060200260200182016040528015610f135781602001602082028036833780820191505090505b509250808054905067ffffffffffffffff811115610f3457610f33611b2a565b5b604051908082528060200260200182016040528015610f625781602001602082028036833780820191505090505b50915060005b8180549050811015611082576000828281548110610f8957610f886127b0565b5b9060005260206000200160009054906101000a900473ffffffffffffffffffffffffffffffffffffffff16905080858381518110610fca57610fc96127b0565b5b602002602001019073ffffffffffffffffffffffffffffffffffffffff16908173ffffffffffffffffffffffffffffffffffffffff16815250506001600087815260200190815260200160002060008273ffffffffffffffffffffffffffffffffffffffff1673ffffffffffffffffffffffffffffffffffffffff16815260200190815260200160002054848381518110611068576110676127b0565b5b602002602001018181525050508080600101915050610f68565b5050915091565b60008080549050905090565b6001602052816000526040600020602052806000526040600020600091509150505481565b6110c261183a565b6000805490508210611109576040517f08c379a00000000000000000000000000000000000000000000000000000000081526004016111009061282b565b60405180910390fd5b6000828154811061111d5761111c6127b0565b5b9060005260206000209060090201604051806101400160405290816000820160009054906101000a900473ffffffffffffffffffffffffffffffffffffffff1673ffffffffffffffffffffffffffffffffffffffff1673ffffffffffffffffffffffffffffffffffffffff16815260200160018201805461119d906122d0565b80601f01602080910402602001604051908101604052809291908181526020018280546111c9906122d0565b80156112165780601f106111eb57610100808354040283529160200191611216565b820191906000526020600020905b8154815290600101906020018083116111f957829003601f168201915b5050505050815260200160028201805461122f906122d0565b80601f016020809104026020016040519081016040528092919081815260200182805461125b906122d0565b80156112a85780601f1061127d576101008083540402835291602001916112a8565b820191906000526020600020905b81548152906001019060200180831161128b57829003601f168201915b505050505081526020016003820154815260200160048201548152602001600582015481526020016006820160009054906101000a900460ff161515151581526020016006820160019054906101000a900460ff16151515158152602001600782015481526020016008820160009054906101000a900460ff1615151515815250509050919050565b6000805490508110611378576040517f08c379a000000000000000000000000000000000000000000000000000000000815260040161136f9061282b565b60405180910390fd5b600080828154811061138d5761138c6127b0565b5b90600052602060002090600902019050806004015442106113e3576040517f08c379a00000000000000000000000000000000000000000000000000000000081526004016113da90612b7b565b60405180910390fd5b8060060160009054906101000a900460ff1615611435576040517f08c379a000000000000000000000000000000000000000000000000000000000815260040161142c90612be7565b60405180910390fd5b8060080160009054906101000a900460ff1615611487576040517f08c379a000000000000000000000000000000000000000000000000000000000815260040161147e90612c53565b60405180910390fd5b8060060160019054906101000a900460ff16156114e957806007015434146114e4576040517f08c379a00000000000000000000000000000000000000000000000000000000081526004016114db90612ce5565b60405180910390fd5b61152d565b6000341161152c576040517f08c379a000000000000000000000000000000000000000000000000000000000815260040161152390612d51565b60405180910390fd5b5b6000805b60026000858152602001908152602001600020805490508110156115e7573373ffffffffffffffffffffffffffffffffffffffff1660026000868152602001908152602001600020828154811061158b5761158a6127b0565b5b9060005260206000200160009054906101000a900473ffffffffffffffffffffffffffffffffffffffff1673ffffffffffffffffffffffffffffffffffffffff16036115da57600191506115e7565b8080600101915050611531565b50806116625760026000848152602001908152602001600020339080600181540180825580915050600190039060005260206000200160009091909190916101000a81548173ffffffffffffffffffffffffffffffffffffffff021916908373ffffffffffffffffffffffffffffffffffffffff1602179055505b348260050160008282546116769190612d71565b92505081905550346001600085815260200190815260200160002060003373ffffffffffffffffffffffffffffffffffffffff1673ffffffffffffffffffffffffffffffffffffffff16815260200190815260200160002060008282546116dd9190612d71565b925050819055503373ffffffffffffffffffffffffffffffffffffffff16837f0b5b4c52969ff7329ecf7ee536409fda87812b15a8622bc6e8cdeab3aee14a263460405161172b9190611fee565b60405180910390a381600301548260050154106118355760018260060160006101000a81548160ff02191690831515021790555060008260000160009054906101000a900473ffffffffffffffffffffffffffffffffffffffff1673ffffffffffffffffffffffffffffffffffffffff1683600501546040516117ad90612b1a565b60006040518083038185875af1925050503d80600081146117ea576040519150601f19603f3d011682016040523d82523d6000602084013e6117ef565b606091505b5050905080611833576040517f08c379a000000000000000000000000000000000000000000000000000000000815260040161182a90612e17565b60405180910390fd5b505b505050565b604051806101400160405280600073ffffffffffffffffffffffffffffffffffffffff1681526020016060815260200160608152602001600081526020016000815260200160008152602001600015158152602001600015158152602001600081526020016000151581525090565b6000604051905090565b600080fd5b600080fd5b6000819050919050565b6118d0816118bd565b81146118db57600080fd5b50565b6000813590506118ed816118c7565b92915050565b600060208284031215611909576119086118b3565b5b6000611917848285016118de565b91505092915050565b600073ffffffffffffffffffffffffffffffffffffffff82169050919050565b600061194b82611920565b9050919050565b61195b81611940565b82525050565b600081519050919050565b600082825260208201905092915050565b60005b8381101561199b578082015181840152602081019050611980565b60008484015250505050565b6000601f19601f8301169050919050565b60006119c382611961565b6119cd818561196c565b93506119dd81856020860161197d565b6119e6816119a7565b840191505092915050565b6119fa816118bd565b82525050565b60008115159050919050565b611a1581611a00565b82525050565b600061014082019050611a31600083018d611952565b8181036020830152611a43818c6119b8565b90508181036040830152611a57818b6119b8565b9050611a66606083018a6119f1565b611a7360808301896119f1565b611a8060a08301886119f1565b611a8d60c0830187611a0c565b611a9a60e0830186611a0c565b611aa86101008301856119f1565b611ab6610120830184611a0c565b9b9a5050505050505050505050565b60008060408385031215611adc57611adb6118b3565b5b6000611aea858286016118de565b9250506020611afb858286016118de565b9150509250929050565b6000602082019050611b1a6000830184611952565b92915050565b600080fd5b600080fd5b7f4e487b7100000000000000000000000000000000000000000000000000000000600052604160045260246000fd5b611b62826119a7565b810181811067ffffffffffffffff82111715611b8157611b80611b2a565b5b80604052505050565b6000611b946118a9565b9050611ba08282611b59565b919050565b600067ffffffffffffffff821115611bc057611bbf611b2a565b5b611bc9826119a7565b9050602081019050919050565b82818337600083830152505050565b6000611bf8611bf384611ba5565b611b8a565b905082815260208101848484011115611c1457611c13611b25565b5b611c1f848285611bd6565b509392505050565b600082601f830112611c3c57611c3b611b20565b5b8135611c4c848260208601611be5565b91505092915050565b611c5e81611a00565b8114611c6957600080fd5b50565b600081359050611c7b81611c55565b92915050565b60008060008060008060c08789031215611c9e57611c9d6118b3565b5b600087013567ffffffffffffffff811115611cbc57611cbb6118b8565b5b611cc889828a01611c27565b965050602087013567ffffffffffffffff811115611ce957611ce86118b8565b5b611cf589828a01611c27565b9550506040611d0689828a016118de565b9450506060611d1789828a016118de565b9350506080611d2889828a01611c6c565b92505060a0611d3989828a016118de565b9150509295509295509295565b600081519050919050565b600082825260208201905092915050565b6000819050602082019050919050565b611d7b81611940565b82525050565b600082825260208201905092915050565b6000611d9d82611961565b611da78185611d81565b9350611db781856020860161197d565b611dc0816119a7565b840191505092915050565b611dd4816118bd565b82525050565b611de381611a00565b82525050565b600061014083016000830151611e026000860182611d72565b5060208301518482036020860152611e1a8282611d92565b91505060408301518482036040860152611e348282611d92565b9150506060830151611e496060860182611dcb565b506080830151611e5c6080860182611dcb565b5060a0830151611e6f60a0860182611dcb565b5060c0830151611e8260c0860182611dda565b5060e0830151611e9560e0860182611dda565b50610100830151611eaa610100860182611dcb565b50610120830151611ebf610120860182611dda565b508091505092915050565b6000611ed68383611de9565b905092915050565b6000602082019050919050565b6000611ef682611d46565b611f008185611d51565b935083602082028501611f1285611d62565b8060005b85811015611f4e5784840389528151611f2f8582611eca565b9450611f3a83611ede565b925060208a01995050600181019050611f16565b50829750879550505050505092915050565b60006020820190508181036000830152611f7a8184611eeb565b905092915050565b611f8b81611940565b8114611f9657600080fd5b50565b600081359050611fa881611f82565b92915050565b60008060408385031215611fc557611fc46118b3565b5b6000611fd3858286016118de565b9250506020611fe485828601611f99565b9150509250929050565b600060208201905061200360008301846119f1565b92915050565b600081519050919050565b600082825260208201905092915050565b6000819050602082019050919050565b60006120418383611d72565b60208301905092915050565b6000602082019050919050565b600061206582612009565b61206f8185612014565b935061207a83612025565b8060005b838110156120ab5781516120928882612035565b975061209d8361204d565b92505060018101905061207e565b5085935050505092915050565b600081519050919050565b600082825260208201905092915050565b6000819050602082019050919050565b60006120f08383611dcb565b60208301905092915050565b6000602082019050919050565b6000612114826120b8565b61211e81856120c3565b9350612129836120d4565b8060005b8381101561215a57815161214188826120e4565b975061214c836120fc565b92505060018101905061212d565b5085935050505092915050565b60006040820190508181036000830152612181818561205a565b905081810360208301526121958184612109565b90509392505050565b6000610140830160008301516121b76000860182611d72565b50602083015184820360208601526121cf8282611d92565b915050604083015184820360408601526121e98282611d92565b91505060608301516121fe6060860182611dcb565b5060808301516122116080860182611dcb565b5060a083015161222460a0860182611dcb565b5060c083015161223760c0860182611dda565b5060e083015161224a60e0860182611dda565b5061010083015161225f610100860182611dcb565b50610120830151612274610120860182611dda565b508091505092915050565b60006020820190508181036000830152612299818461219e565b905092915050565b7f4e487b7100000000000000000000000000000000000000000000000000000000600052602260045260246000fd5b600060028204905060018216806122e857607f821691505b6020821081036122fb576122fa6122a1565b5b50919050565b7f476f616c206d7573742062652067726561746572207468616e207a65726f0000600082015250565b6000612337601e8361196c565b915061234282612301565b602082019050919050565b600060208201905081810360008301526123668161232a565b9050919050565b7f446561646c696e65206d75737420626520696e20746865206675747572650000600082015250565b60006123a3601e8361196c565b91506123ae8261236d565b602082019050919050565b600060208201905081810360008301526123d281612396565b9050919050565b7f466978656420646f6e6174696f6e20616d6f756e74206d75737420626520677260008201527f6561746572207468616e207a65726f20696620666978656420646f6e6174696f60208201527f6e20697320656e61626c65640000000000000000000000000000000000000000604082015250565b600061245b604c8361196c565b9150612466826123d9565b606082019050919050565b6000602082019050818103600083015261248a8161244e565b9050919050565b60008190508160005260206000209050919050565b60006020601f8301049050919050565b600082821b905092915050565b6000600883026124f37fffffffffffffffffffffffffffffffffffffffffffffffffffffffffffffffff826124b6565b6124fd86836124b6565b95508019841693508086168417925050509392505050565b6000819050919050565b600061253a612535612530846118bd565b612515565b6118bd565b9050919050565b6000819050919050565b6125548361251f565b61256861256082612541565b8484546124c3565b825550505050565b600090565b61257d612570565b61258881848461254b565b505050565b5b818110156125ac576125a1600082612575565b60018101905061258e565b5050565b601f8211156125f1576125c281612491565b6125cb846124a6565b810160208510156125da578190505b6125ee6125e6856124a6565b83018261258d565b50505b505050565b600082821c905092915050565b6000612614600019846008026125f6565b1980831691505092915050565b600061262d8383612603565b9150826002028217905092915050565b61264682611961565b67ffffffffffffffff81111561265f5761265e611b2a565b5b61266982546122d0565b6126748282856125b0565b600060209050601f8311600181146126a75760008415612695578287015190505b61269f8582612621565b865550612707565b601f1984166126b586612491565b60005b828110156126dd578489015182556001820191506020850194506020810190506126b8565b868310156126fa57848901516126f6601f891682612603565b8355505b6001600288020188555050505b505050505050565b7f4e487b7100000000000000000000000000000000000000000000000000000000600052601160045260246000fd5b6000612749826118bd565b9150612754836118bd565b925082820390508181111561276c5761276b61270f565b5b92915050565b6000606082019050818103600083015261278c81866119b8565b905061279b60208301856119f1565b6127a860408301846119f1565b949350505050565b7f4e487b7100000000000000000000000000000000000000000000000000000000600052603260045260246000fd5b7f496e76616c69642070726f6a6563742049440000000000000000000000000000600082015250565b600061281560128361196c565b9150612820826127df565b602082019050919050565b6000602082019050818103600083015261284481612808565b9050919050565b7f446561646c696e6520686173206e6f74206265656e207265616368656420796560008201527f7400000000000000000000000000000000000000000000000000000000000000602082015250565b60006128a760218361196c565b91506128b28261284b565b604082019050919050565b600060208201905081810360008301526128d68161289a565b9050919050565b7f50726f6a65637420676f616c20616c7265616479206d65740000000000000000600082015250565b600061291360188361196c565b915061291e826128dd565b602082019050919050565b6000602082019050818103600083015261294281612906565b9050919050565b7f50726f6a65637420676f616c206e6f74206d65742e0000000000000000000000600082015250565b600061297f60158361196c565b915061298a82612949565b602082019050919050565b600060208201905081810360008301526129ae81612972565b9050919050565b7f446f6e6174696f6e7320666f7220746869732070726f6a65637420686176652060008201527f616c7265616479206265656e20726566756e6465640000000000000000000000602082015250565b6000612a1160358361196c565b9150612a1c826129b5565b604082019050919050565b60006020820190508181036000830152612a4081612a04565b9050919050565b6000612a52826118bd565b9150612a5d836118bd565b9250828202612a6b816118bd565b91508282048414831517612a8257612a8161270f565b5b5092915050565b7f4e487b7100000000000000000000000000000000000000000000000000000000600052601260045260246000fd5b6000612ac3826118bd565b9150612ace836118bd565b925082612ade57612add612a89565b5b828204905092915050565b600081905092915050565b50565b6000612b04600083612ae9565b9150612b0f82612af4565b600082019050919050565b6000612b2582612af7565b9150819050919050565b7f446561646c696e65206861732070617373656400000000000000000000000000600082015250565b6000612b6560138361196c565b9150612b7082612b2f565b602082019050919050565b60006020820190508181036000830152612b9481612b58565b9050919050565b7f50726f6a65637420616c726561647920636f6d706c6574656400000000000000600082015250565b6000612bd160198361196c565b9150612bdc82612b9b565b602082019050919050565b60006020820190508181036000830152612c0081612bc4565b9050919050565b7f50726f6a65637420686173206265656e20726566756e64656400000000000000600082015250565b6000612c3d60198361196c565b9150612c4882612c07565b602082019050919050565b60006020820190508181036000830152612c6c81612c30565b9050919050565b7f4d7573742073656e6420657861637420666978656420646f6e6174696f6e206160008201527f6d6f756e74000000000000000000000000000000000000000000000000000000602082015250565b6000612ccf60258361196c565b9150612cda82612c73565b604082019050919050565b60006020820190508181036000830152612cfe81612cc2565b9050919050565b7f446f6e6174696f6e206d7573742062652067726561746572207468616e203000600082015250565b6000612d3b601f8361196c565b9150612d4682612d05565b602082019050919050565b60006020820190508181036000830152612d6a81612d2e565b9050919050565b6000612d7c826118bd565b9150612d87836118bd565b9250828201905080821115612d9f57612d9e61270f565b5b92915050565b7f4661696c656420746f2073656e642066756e647320746f2070726f6a6563742060008201527f6f776e6572000000000000000000000000000000000000000000000000000000602082015250565b6000612e0160258361196c565b9150612e0c82612da5565b604082019050919050565b60006020820190508181036000830152612e3081612df4565b905091905056fea26469706673582212206e331632cf8a42d3229fc84cd78662e25d85b8333d15021521127e34f8a8459764736f6c634300081c0033",
  "linkReferences": {},
  "deployedLinkReferences": {}
}